:020000040800F2
:100000000000022061770008110E0008130E00089E
:10001000150E0008170E0008190E00080000000059
:100020000000000000000000000000005161000816
:100030001B0E000800000000F16100085562000876
:10004000B1770008B1770008B1770008B1770008F0
:10005000B1770008B1770008B1770008B1770008E0
:10006000B1770008B1770008B1770008B1770008D0
:10007000B1770008B1770008B1770008B1770008C0
:10008000B1770008B1770008B177000800000000E0
:10009000000000000000000000000000B177000830
:1000A000B17700081D0E0008210E0008B177000886
:1000B000B1770008B1770008B1770008B177000880
:1000C000B1770008B1770008B1770008B177000870
:1000D000B1770008B1770008B17700080000000090
:1000E000B1770008B1770008B17700080000000080
:1000F000000000000000000000000000B1770008D0
:1001000000000000B1770008B1770008B17700085F
:1001100000000000000000000000000000000000DF
:10012000B1770008B1770008B1770008B17700080F
:10013000B17700080000000000000000000000008F
:10014000000000000000000000000000310E000868
:10015000B1770008B1770008B1770008B1770008DF
:10016000B1770008B177000800000000000000002F
:10017000000000000000000000000000000000007F
:1001800000000000B177000800000000000000003F
:08019000B1770008B177000807
:1001A000034613F8012B002AFBD1181A01387047B7
:1001B00001F0FF01102A2BDB10F0070F08D010F818
:1001C000013B013A8B422DD010F0070F42B3F6D11C
:1001D000F0B441EA012141EA014122F007047FF035
:1001E00000070023F0E80256083C85EA010586EA8C
:1001F000010685FA47F5A3FA87F586FA47F6A5FAC8
:1002000087F68EB9EED1F0BC01F0FF0102F00702D3
:1002100032B110F8013B013A83EA010313B1F8D17E
:100220000020704701387047002D06BF354603385F
:10023000073815F0010F07D1013015F4807F02BF98
:10024000013015F4C03F0130F0BC0138704700BFE9
:1002500053B94AB9002908BF00281CBF4FF0FF312D
:100260004FF0FF3000F00CB8ADF1080C6DE904CE92
:1002700007F0A8FFDDF804E0DDE9022304B07047D1
:10028000704700BF0348044B834202D0034B03B1C5
:10029000184770474C0100204C010020000000006E
:1002A0000548064B1B1AD90F01EBA301491002D0D8
:1002B000034B03B1184770474C0100204C0100204C
:1002C0000000000010B5064C237843B9FFF7DAFFB1
:1002D000044B13B10448AFF300800123237010BD19
:1002E00050010020000000008084000808B5054B84
:1002F0001BB105490548AFF30080BDE80840FFF792
:10030000CFBF00BF0000000054010020808400081F
:1003100008B50268034B9A4200D008BD03F0FAF812
:10032000FBE700BF0048014072B6FEE700B595B09C
:100330003022002108A807F071FA002303930493E8
:1003400005930693079301931F4A116C41F0805166
:100350001164126C02F080520192019A02931B4BBD
:100360001A6842F440421A601B6803F44043029347
:10037000029B012308934FF48033099302230E93C9
:100380004FF480020F9219221092C0221192129300
:100390000423139308A802F00DFC88B90F230393DC
:1003A00002230493002305934FF48052069207938F
:1003B000032103A802F04EFE20B915B05DF804FB3E
:1003C000FFF7B2FFFFF7B0FF0038024000700040B7
:1003D00008B503F085F8FFF7A9FF00F015F800F065
:1003E000B5F800F0D1F800F07DFC00F095FC00F0CD
:1003F0005BF900F0ADFA00F063FB00F0D7FB00F012
:100400008BF805F0E8FCFEE7F0B589B00024039412
:1004100004940594069407940094204B1A6B42F0C0
:1004200080021A631A6B02F080020092009A019413
:100430001A6B42F001021A631A6B02F00102019278
:10044000019A02941A6B42F002021A631B6B03F0CA
:1004500002030293029B124F22461021384602F0FB
:10046000D1FF104D22464FF46041284602F0CAFFEA
:1004700010230393012604960594069403A9384695
:1004800002F0DCFE4FF46043039304960594069457
:1004900003A9284602F0D2FE09B0F0BD00380240A0
:1004A000000002400004024000B5ADB000F034FD91
:1004B0000FE00B4A802101A807F07CF901A8FFF7A3
:1004C0006FFE81B201A800F013FE4FF4FA7005F040
:1004D000BAFC052121A807F035F90028E9D1F4E795
:1004E000B484000870470000034B0360034B0B60AB
:1004F00080231360704700BFF0080020F006002042
:10050000034B0360034B0B604FF480731360704721
:10051000700500206C01002010B588B00DF1040CAE
:10052000084C0FCCACE80F0094E807008CE80700FB
:10053000002101A805F054FC034B186007F0E8F80F
:1005400008B010BD98840008700A002008B50B4858
:100550000B4B03600B4B436000238360C3604FF47D
:100560008042026143618361C361036203F0E6F983
:1005700000B908BDFFF7D8FEFBE700BFC80A00209E
:1005800000540040A086010008B50B480B4B0360E7
:100590000B4B436000238360C3604FF480420261D1
:1005A00043618361C361036203F0C8F900B908BD08
:1005B000FFF7BAFEFBE700BF740A002000580040B6
:1005C000A08601002DE9F0418AB00023059306932F
:1005D00007930893099303682F4A934205D02F4A43
:1005E000934225D00AB0BDE8F081002501952C4C3E
:1005F000236B43F002032363236B03F00203019395
:10060000019BC0230593122306930323089304231D
:10061000099305A9234802F011FE0295236C43F4C7
:1006200000132364236C03F400130293029BD9E7A5
:10063000002503951A4C236B43F002032363236BBD
:1006400003F002030393039B4FF4806305934FF081
:100650001208CDF818800327089704230993114E38
:1006600005A9304602F0EAFD08230593CDF818806D
:10067000079508970923099305A9304602F0DEFD86
:100680000495236C43F480032364236C03F48003F8
:100690000493049BA6E700BF0054004000580040AC
:1006A000003802400004024008B50D480D4B0360BD
:1006B0004FF48273436000238360C360036143612E
:1006C0004FF400728261C3610362436283620A2352
:1006D000C36203F08DFB00B908BDFFF725FEFBE701
:1006E0001C0B00200030014000B589B000230393AB
:1006F00004930593069307930268154B9A4202D020
:1007000009B05DF804FB0021019103F584335A6CB4
:1007100042F480525A645A6C02F480520192019A57
:1007200002911A6B42F001021A631B6B03F0010382
:100730000293029BE0230393022304930323069373
:100740000523079303A9034802F078FDD8E700BF0B
:10075000003001400000024000B500F00700C0F189
:10076000070CBCF1040F28BF4FF0040C031D062B2F
:100770000FD9C31E4FF0FF3E0EFA0CF021EA000124
:1007800099400EFA03FE22EA0E0241EA02005DF8E9
:1007900004FB0023EEE7000010B4402910D007D876
:1007A00004290FD010290FD001290FD1002210E009
:1007B000B1F5807F0CD0B1F5806F1AD1052208E029
:1007C000032206E0012204E0022202E0062200E009
:1007D00004221830084B995C4358084C14F802C0A6
:1007E000042202FA0CF223EA020343505DF8044BA0
:1007F00070470622EDE700BF808500087885000875
:1008000010B5402910D007D804290FD010290FD0D7
:1008100001290FD1002110E0B1F5807F0CD0B1F596
:10082000806F1FD1052108E0032106E0012104E0CB
:10083000022102E0062100E0042118300A4B13F8DF
:1008400001C050F80C30094C14F801E0032101FA02
:100850000EF123EA0103120C02FA0EF2134340F8E0
:100860000C3010BD0621E8E780850008708500087F
:1008700010B5402910D007D804290FD010290FD067
:1008800001290FD1002110E0B1F5807F0CD0B1F526
:10089000806F1FD1052108E0032106E0012104E05B
:1008A000022102E0062100E0042118300A4B13F86F
:1008B00001C050F80C30094C14F801E00C2101FA89
:1008C0000EF123EA0103120C02FA0EF2134340F870
:1008D0000C3010BD0621E8E780850008708500080F
:1008E00010B5402910D007D804290FD010290FD0F7
:1008F00001290FD1002110E0B1F5807F0CD0B1F5B6
:10090000806F1FD1052108E0032106E0012104E0EA
:10091000022102E0062100E0042118300A4B13F8FE
:1009200001C050F80C30094C14F801E0F02101FA34
:100930000EF123EA0103120C02FA0EF2134340F8FF
:100940000C3010BD0621E8E780850008708500089E
:10095000F0B58FB0002509950A950B950C950D956E
:100960000395049505950695079508954F4B5A6C88
:1009700042F001025A645A6C02F001020292029A99
:100980001A6B42F001021A631B6B03F0010301931F
:10099000019B4FF48073039302230493012608966E
:1009A00003A9434803F0C7FD424FF8682A460F21C8
:1009B000C0F30220FFF7D0FE0001C0B23E4C84F825
:1009C00019034FF000732360F8682A460F21C0F323
:1009D0000220FFF7C1FE0001C0B284F81A034FF0F5
:1009E00080632360ADF824500A954FF6FF730B9394
:1009F0000C950D95314C09A9204603F09BFC23680A
:100A000023F080032360A36823F4804323F00703CB
:100A1000A360A36823F0700343F05003A360A368AE
:100A200023F0070343F00403A360236A23F00103C8
:100A300023622A4631462046FFF752FF236A23F0FD
:100A40000A032362E36823F04003E360E36823F4CE
:100A50008043E3604FF4803231462046FFF7D0FEFA
:100A60002A4631462046FFF703FF4FF4003210219B
:100A70002046FFF7C5FE2A4610212046FFF7F8FE64
:100A80002A4610212046FFF72BFF236A23F0A003FC
:100A900043F020032362636823F070036360A3685C
:100AA00023F08003A3600FB0F0BD00BF0038024008
:100AB0000000024000ED00E000E100E00000014025
:100AC00070B596B000241194129413941494159454
:100AD0002022214609A806F0A1FE0394049405945F
:100AE0000694079408942F4E336C43F0010333644B
:100AF000336C03F001030293029B4FF0FF33139317
:100B000011A94FF0804003F015FC4FF080452B6891
:100B100023F080032B60AB6823F4804323F00703AA
:100B2000AB60AB6943F00803AB61602309930A949F
:100B30000B940C940D9409AA0121284603F046FC5D
:100B400001212846FFF728FEAB6943F40063AB613F
:100B500009AA1021284603F039FC10212846FFF786
:100B60001BFE6B6823F070036B60AB6823F080039F
:100B7000AB60336B43F001033363336B03F001036A
:100B80000193019B0323039302230493059406948A
:100B900007940123089303A9034803F0CCFC16B083
:100BA00070BD00BF0038024000000240F0B597B0B1
:100BB0000024119412941394149415942022214625
:100BC00009A806F02BFE0394049405940694079458
:100BD0000894414F3B6C43F002033B643B6C03F0D1
:100BE00002030293029B4FF6FF7313933B4D11A92F
:100BF000284603F09FFB2B6823F080032B60AB6833
:100C000023F4804323F00703AB604FF08046D6F80F
:100C1000183443F00803C6F81834602309930A9483
:100C20000B940C940D9409AA0121284603F0CEFBE5
:100C300001212846FFF7B0FDD6F8183443F40063CD
:100C4000C6F8183409AA1021284603F0BFFB10216A
:100C50002846FFF7A1FDD6F81C3443F00803C6F878
:100C60001C3409AA4FF48071284603F0AFFB4FF4FF
:100C700080712846FFF790FDD6F81C3443F40063DA
:100C8000C6F81C3409AA4FF48051284603F09EFB95
:100C90004FF480512846FFF77FFD6B6823F0700307
:100CA0006B60AB6823F08003AB603B6B43F00203E7
:100CB0003B633B6B03F002030193019B33230393DC
:100CC00002230493059406940794089303A9044807
:100CD00003F031FC17B0F0BD0038024000040040C2
:100CE0000004024008B50A480A4B03604FF4E133A0
:100CF000436000238360C36003610C22426183610F
:100D0000C36103F0E9FC00B908BDFFF70DFBFBE789
:100D1000BC0B00200010014008B50A480A4B0360D4
:100D20004FF4E133436000238360C36003610C220E
:100D300042618361C36103F0CFFC00B908BDFFF7D6
:100D4000F3FAFBE7740B00200044004000B58BB0C1
:100D50000023059306930793089309930368284A91
:100D6000934205D0274A934226D00BB05DF804FB8E
:100D700000210191244B5A6C42F010025A645A6CC3
:100D800002F010020192019A02911A6B42F00102E4
:100D90001A631B6B03F001030293029B4FF4C063C1
:100DA000059302230693032308930723099305A9B8
:100DB000164802F043FAD8E700210391124B1A6C4F
:100DC00042F400321A641A6C02F400320392039A5D
:100DD00004911A6B42F001021A631B6B03F00103CA
:100DE0000493049B0C230593022306930323089387
:100DF0000723099305A9054802F020FAB5E700BFCB
:100E00000010014000440040003802400000024051
:100E1000FEE7FEE7FEE7FEE7FEE7704770470000EB
:100E200008B5024803F084F808BD00BF040C002098
:100E300008B5024800F0F5FD08BD00BF48230020BA
:100E400000B583B0002200920D4B596C41F48041F3
:100E50005964596C01F48041009100990192196C18
:100E600041F0805119641B6C03F080530193019B86
:100E70000F216FF0010002F01FFB03B05DF804FBCF
:100E80000038024030B589B00546002401941D4B5E
:100E90005A6C42F480225A645B6C03F48023019301
:100EA000019B02A903A802F0ABF902F099F9164AD6
:100EB000A2FB00239B0C013B1448154A026040F240
:100EC000E732C260436004618460846103F032F9F8
:100ED000044610B1204609B030BD0C4802F0E8FFCE
:100EE00004460028F6D11A2002F0F6FA0F2D01D997
:100EF0000124EFE7002229461A2002F0DDFA054B13
:100F00001D60E7E70038024083DE1B43040C00202D
:100F1000004801406800002008B500220F49104831
:100F200005F07CFA70B90F490D4805F08EFA60B9EA
:100F30000D490B4806F082FA50B9094805F09FFAAE
:100F400048B908BDFFF7F0F9EDE7FFF7EDF9EFE776
:100F5000FFF7EAF9F1E7FFF7E7F9F2E734000020DD
:100F60004C0C0020B80000205000002012230B8001
:100F7000004870472000002004230B800048704781
:100F80001C000020002393421ED200B510E00CF19B
:100F9000370C01F813C000014FEA430C0CF1010CAF
:100FA0004FF0000E01F80CE00133DBB2934209D29E
:100FB0004FEA107CB0F1204FE9D20CF1300C01F86F
:100FC00013C0E8E75DF804FB7047000038B50B4B31
:100FD000D3F8100AD3F8144AD3F8183AC01800D13D
:100FE00038BD074D08222946FFF7CCFF042205F142
:100FF00010012046FFF7C6FFF2E700BF0070FF1F99
:101000000200002008B51A230B80FFF7DFFF01481C
:1010100008BD00BF0000002008B50A4628B90549F0
:10102000054805F081FF034808BD0249024805F064
:101030007BFFF8E7280F00201085000810B50A464E
:10104000034C2146034805F06FFF204610BD00BF4A
:10105000280F00201C85000808B50A4628B9054954
:10106000054805F061FF034808BD0249024805F044
:101070005BFFF8E7280F00203085000808B50A4616
:1010800028B90549054805F04FFF034808BD024946
:10109000024805F049FFF8E7280F00203C850008CA
:1010A00000207047002070470020704710B50146AF
:1010B000044C204606F0DBF9204606F0FFF900203C
:1010C00010BD00BF4C0C002010B5064C0022064994
:1010D000204606F0BEF90549204606F0C8F9002072
:1010E00010BD00BF4C0C0020281100202819002042
:1010F000094BD3F8BC32D3F814320BB1012070473E
:1011000010B5054C0A460146204606F0A2F92046D5
:1011100006F0B9F910BD00BF4C0C002030B589B005
:101120000023039304930593069307930368B3F195
:10113000A04F01D009B030BD00250195164C236B9E
:1011400043F001032363236B03F001030193019B2D
:101150004FF4C053039302230493032306930A23FB
:10116000079303A90D4802F069F8636B43F080030D
:1011700063630295636C43F480436364636C03F4BC
:1011800080430293029B2A460521432002F094F9F2
:10119000432002F0A1F9CDE70038024000000240F0
:1011A00008B500F29C41D0F8E00405F07EF908BDD6
:1011B00008B501EBC10300EB8303D3F86022D0F83C
:1011C000E00405F045FA08BD08B501EBC10300EBEA
:1011D00083031A6AD0F8E00405F09FFA08BD08B549
:1011E000D0F8E00405F0DFF908BD10B50446C37976
:1011F000022B09D10121D4F8E00405F0B5F9D4F8A7
:10120000E00405F07EF910BDFFF78EF8F2E700006C
:1012100010B50446D0F8E00405F0A9F92268D2F828
:10122000003E43F00103C2F8003EE37A23B1034AD3
:10123000136943F00603136110BD00BF00ED00E029
:1012400008B5D0F8E00405F0A1F908BD08B5D0F85C
:10125000E00405F0D0F908BD08B5D0F8E00405F0C9
:10126000B3F908BD08B5D0F8E00405F0DBF908BD16
:1012700008B5D0F8E00405F0D7F908BD02780AB146
:101280000020704710B503461548C0F8E034C3F895
:10129000C8024FF0A0430360042303710222C2710D
:1012A0000023837142728372C37203738373C373A7
:1012B00000F0EEF880B90A4C8021204600F0B6FE1E
:1012C00040220021204600F08BFE80220121204692
:1012D00000F086FE002010BDFFF726F8EBE700BF08
:1012E00048230020D0F8C83211F0800F08D101F057
:1012F0007F0101EBC10103EB810393F856027047B4
:1013000001F07F0101EBC10103EB8103987D704780
:1013100008B5D0F8C80200F0BFFA08BD0048704711
:10132000282100207047032805D8DFE800F00504D5
:101330000205012070470320704708B5D0F8C802A5
:1013400000F027F9FFF7EFFF08BD08B594461A46ED
:101350006346D0F8C80200F0FCF9FFF7E4FF08BDCF
:1013600008B5D0F8C80200F03AFAFFF7DCFF08BD74
:1013700008B5D0F8C80200F0BDFAFFF7D4FF08BDE9
:1013800008B5D0F8C80200F0F8FAFFF7CCFF08BDA6
:1013900008B5D0F8C80200F0C9F9FFF7C4FF08BDCE
:1013A00008B5D0F8C80200F080FAFFF7BCFF08BD0E
:1013B00008B5D0F8C80200F04AFAFFF7B4FF08BD3C
:1013C0002DE9F04383B0D0F8008001EBC10300EBBE
:1013D00083039A6A5B6A9A4254D807460C469B1A62
:1013E00001EBC10200EB8202D2699A4200D31A4695
:1013F00002F103094FEA990915E006F103094FEAE2
:101400009909BB7904EBC40507EB8505296A0093AC
:10141000B3B2E2B2404601F048F92B6A33442B6282
:10142000AB6A3344AB6208EB441303F510639B696A
:101430009BB24B4512D304EBC40307EB83039A6AB8
:101440005B6A9A420AD24BB19B1A04EBC40207EBC7
:101450008202D6699E42D0D31E46CEE704EBC40377
:1014600007EB83077A6ABB6A9A420FD804F00F042D
:101470000122A240D8F8343823EA0203C8F83438ED
:10148000002000E0012003B0BDE8F0830020FAE76F
:1014900030B583B000287AD00446056890F89534BA
:1014A000C3B1032384F89534B5F1A04F17D0206859
:1014B00000F0AEFE237C8DF80030231D0ECB20689B
:1014C00000F0E5FD70B1022384F89534012528462B
:1014D00003B030BD80F89434FFF720FEE1E700232D
:1014E000A371E4E70021206801F0F5FA024608B98B
:1014F000034617E0022384F895340125E7E703EB60
:10150000C30104EB8101012048750B75CB850020D8
:101510000876C861086203EBC30104EB81014862ED
:101520000133DBB220799842E9D816E002EBC2031E
:1015300004EB8303002183F8551283F8542283F8C7
:101540005812C3F85C12C3F8601202EBC20304EB3A
:101550008303C3F864120132D2B29042E6D8237CEE
:101560008DF80030231D0ECB206800F0A7FE054645
:1015700020B1022384F895340125A8E70023637481
:10158000012384F89534206801F064FA9FE701256F
:101590009DE7036890F89424012A1AD010B50446F8
:1015A000012280F89424DA6812F0400F02D0427BC6
:1015B000012A09D0206800F025FE206801F03CFADD
:1015C000002084F8940410BD9A6B42F480329A6330
:1015D000F0E702207047000070B504460D46006831
:1015E000066C00EB411303F530639A68A179012979
:1015F00011D038498E4256D03DB905EBC50304EBF6
:101600008303D3F86432002B5ED0E9B22046FFF7A3
:10161000CFFD002070BD12F0080F09D02E498E4278
:10162000F7D912F4004FF4D04FF400429A60F0E77B
:1016300012F0200F02D020229A60EAE712F0280F61
:10164000E7D125498E4206D912F4004F03D04FF45A
:1016500000429A60DDE705EBC50204EB8202D2F896
:1016600074121B69C3F31203CB1AC2F868327DB936
:1016700005EBC50204EB8202D2F864226AB105EBE5
:10168000C50204EB8202D2F860121944C2F860125B
:10169000E9B22046FFF78CFDBBE704F29C42012132
:1016A00001F058FAF4E712F4004F03D04FF400426F
:1016B0009A60AEE712F0200F01D020229A60E9B2C2
:1016C0002046FFF775FDA4E704F29C42002101F0DB
:1016D00041FA9AE70A31544F0A30544F38B504465C
:1016E00003681D6C03EB4113D3F8081B0E4A9542A7
:1016F00007D903F5306311F4004F02D04FF40042D4
:101700009A602046FFF74CFD074B9D4202D9A37912
:10171000012B01D0002038BD04F29C420121206839
:1017200001F018FAF6E700BF0A30544F90F89434ED
:10173000012B0CD010B50446012380F89434417479
:10174000006801F069F9002084F8940410BD0220BB
:10175000704738B505468C4611F0800F2BD101F04B
:101760000F0E0EEBCE04A40004F514740444211DE6
:101770000EEBCE0E00EB8E0E00208EF855020CF014
:101780000F0C81F800C0C2F30A028A600B714A781C
:101790000AB1A1F81AC0022B1CD095F89434012B81
:1017A0001BD0012385F89434286800F062FE0020E5
:1017B00085F8940438BD01F00F0000EBC0018900EA
:1017C00010312944043100EBC00005EB80000124F6
:1017D0004475D4E700234B71DFE70220EAE710B538
:1017E00004460A4611F0800F20D101F00F0000EBF3
:1017F000C0039B0003F514732344191D00EBC000C4
:1018000004EB8000002380F8553202F00F020A70CA
:1018100094F89434012B18D0012384F89434206870
:1018200000F074FE002084F8940410BD01F00F0055
:1018300000EBC0039B0010332344191D00EBC000D4
:1018400004EB800001234375DFE70220EDE710B5CC
:10185000144601F00F0C0CEBCC01890001F514715A
:10186000014404310CEBCC0E00EB8E0ECEF860225E
:10187000CEF864320023CEF868328EF855328EF8F6
:1018800054C28279012A04D0006800F025FF0020AC
:1018900010BDCEF87042F7E701F00F0101EBC10176
:1018A00000EB8100D0F86802704710B5144601F0D3
:1018B0000F0C0CEBCC0189001031014404310CEB0E
:1018C000CC0E00EB8E0ECEF82020CEF82430002374
:1018D000CEF8283001238EF815308EF814C08279A6
:1018E0009A4204D0006800F0F7FE002010BDCEF848
:1018F0003040F7E738B501F00F050279AA4238D336
:1019000004460B4611F0800F1FD101EBC101890085
:1019100001F514710144043103EBC30300EB8303AD
:10192000002283F8552201238B700D7094F89434B3
:10193000012B20D0012384F89434206801F011F8A1
:1019400085B1002084F8940438BD05EBC5018900F9
:1019500010310144043105EBC50300EB8303012280
:101960005A75E0E704F29C42A179206801F0F2F890
:10197000E7E70120E8E70220E6E701F00F0302793C
:101980009A4230D310B5044611F0800F1ED103EBFC
:10199000C301890001F514710144043103EBC30252
:1019A00000EB8202002082F8550200228A700B7040
:1019B00094F89434012B18D0012384F894342068CF
:1019C00000F0FCFF002084F8940410BD03EBC30179
:1019D000890010310144043103EBC30200EB8202A1
:1019E00001205075E1E7012070470220EDE708B5BE
:1019F00011F0800F0CD101F00F0101EBC101890042
:101A000001F5147101440431006800F0EFFD08BDD8
:101A100001F00F0101EBC1018900103101440431D3
:101A2000F2E72DE9F04F83B004460568284601F03F
:101A30004EF810B103B0BDE8F08F0646206801F003
:101A400017F80028F6D005F50067BB68C3F30D232F
:101A5000C4F8D434206801F00BF810F0020F04D061
:101A60002268536903F002035361206801F000F813
:101A700010F0100F15D02268936923F010039361C2
:101A8000D5F8208008F00F0908F4F013B3F5802F83
:101A90004CD0B3F5402F6FD02268936943F0100308
:101AA0009361206800F0E4FF10F4002F76D12068E5
:101AB00000F0DEFF10F4802F40F0E080206800F09E
:101AC000D7FF0028C0F26181206800F0D1FF10F438
:101AD000006F09D0BB6813F0010F40F06E812268DF
:101AE000536903F400635361206800F0C1FF10F4F0
:101AF000805F40F06681206800F0BAFF10F4005F5C
:101B000040F0B381206800F0B3FF10F0080F40F000
:101B1000C481206800F0ACFF10F0800F00F0D78186
:101B2000AB6923F08003AB610126C0E147F6F07397
:101B300018EA030FB0D04FEA181A4FEAC90301930D
:101B400009EBC90B04EB8B0BC8F30A12DBF860122C
:101B5000284600F0E3FEDBF86032CAF30A0A534479
:101B6000CBF86032DBF86832019A4A4404EB820217
:101B70005344C2F868328FE7082204F29C41284699
:101B800000F0CCFE09EBC90304EB8303D3F8682211
:101B9000C8F30A184244C3F868227DE7206800F0C1
:101BA0006BFF8046B14635E005EB49130122C3F8CF
:101BB000082B49462046FFF70FFD3CE005EB491393
:101BC0000822C3F8082B49462046FFF787FD35E079
:101BD00009EBC90304EB830393F85732012B41D07F
:101BE00005EB49130222C3F8082B1AF0200F04D08A
:101BF00005EB49132022C3F8082B1AF4005F05D027
:101C000005EB49134FF40052C3F8082B09F1010901
:101C10004FEA5808B8F1000F3FF449AF18F0010F30
:101C2000F4D05FFA89FB5946206800F035FF824600
:101C300010F0010FB8D11AF0080FBFD11AF0100F31
:101C400004D005EB49131022C3F8082B1AF0020F39
:101C5000CBD06B6913F0800FBAD07B6843F48063FC
:101C60007B60B5E709EBC90304EB8303002283F82B
:101C7000572259462046FFF7E9FAB1E7206800F0FD
:101C800003FF8046B14625E059462046FFF79CFAFF
:101C90001AF0080F04D005EB49130822C3F80829ED
:101CA0001AF0100F04D005EB49131022C3F80829CD
:101CB0001AF0400F04D005EB49134022C3F808295D
:101CC0001AF0020F40D11AF0800F59D109F1010921
:101CD0004FEA5808B8F1000F3FF4F0AE18F0010FCA
:101CE000F4D05FFA89FB5946206800F0DEFE824698
:101CF00010F0010FCCD009F00F02012101FA02F21D
:101D00007B6B23EA02037B6305EB4913C3F80819D5
:101D1000A3798B42B8D109EBC90304EB83031A6A98
:101D2000D9690A441A62B9F1000FADD109EBC903B0
:101D300004EB83035B6A002BA6D104F29C420121D1
:101D4000206800F007FF9FE74946284600F066FA42
:101D500009EBC90304EB8303DB7D012B05D005EB05
:101D600049130222C3F80829ADE709EBC90304EBC4
:101D700083030022DA7559462046FFF76DFAEEE735
:101D800049462046FFF71CFBA0E77B6823F00103D0
:101D90007B6094F8CC34012B08D02046FFF750FA32
:101DA0002268536903F0004353618DE6002184F8F3
:101DB000CC14204600F03EF9F2E72046FFF728FA5F
:101DC0008DE67B6823F001037B601021206800F022
:101DD00025FA1AE005EB46134FF67F31C3F80819D0
:101DE000D3F8002922F40012C3F80029C3F8081B15
:101DF000D3F8002B22F40012C3F8002BD3F8002BE9
:101E000042F00062C3F8002B01362379B342E1D8D7
:101E1000FB6943F00113FB61E37BDBB1D7F884304E
:101E200043F00B03C7F884307B6C43F00B037B64F7
:101E3000D5F8003823F4FE63C5F8003804F29C425C
:101E4000A179206800F086FE2268536903F480536C
:101E5000536150E67B6943F4005343F02B037B61ED
:101E60003B6943F00B033B61E2E7206800F064FE4E
:101E7000206800F0EDFAE071266801F09BF9014658
:101E8000E279304600F04CF92046FFF7AEF92268BF
:101E9000536903F40053536134E62046FFF79FF97A
:101EA0002268536903F00803536132E6013623794F
:101EB000B3420CD906EBC60304EB830393F8573205
:101EC000012BF3D1F1B22046FFF791FDEEE7206838
:101ED00000F0CEFD10F4801F25D1206800F0C8FD71
:101EE00010F4001F58D0012326E001362379B342B5
:101EF0001BD905EB4613D3F8002906EBC60304EB08
:101F000083031B7E012BF0D1002AEEDA06EBC60319
:101F100004EB83030122DA7566F07F01C9B2204623
:101F2000FFF765FDE1E70126E0E72268536903F466
:101F300080135361D1E7013322799A4227D905EB07
:101F40004312D2F8001B03EBC30204EB820292F8A7
:101F50005822012AEFD10029EDDAD4F8D42482EAFC
:101F6000114212F0010FE6D103EBC30204EB82022F
:101F7000012182F85712AA6942F08002AA616A69B7
:101F800012F0800FD7D17B6843F400737B60226826
:101F9000536903F400135361206800F069FD10F0E9
:101FA000804F10D1206800F063FD10F0040F3FF463
:101FB00041AD23685D6815F0040F0DD122685368A8
:101FC0002B43536036E52046FFF74CF922685369EE
:101FD00003F080435361E5E72046FFF749F9EDE759
:101FE00010B40468606A31B940EA0240A06200207F
:101FF0005DF8044B70478C46A36A00EB1340002346
:1020000008E003F1400104EB8101496800EB114055
:102010000133DBB20CF1FF318B42F2D340EA0240D4
:102020000CF13F0104EB81046060E0E70368596252
:1020300000207047704782B000230193019B013359
:102040000193019BB3F1706F1CD80369002BF5DA83
:102050000A23019302E0019B013B0193019B002BAA
:10206000F9D1036943F001030361019B013301933B
:10207000019BB3F1706F08D8036913F0010FF4D11D
:10208000002000E0032002B070470320FBE784B08B
:1020900010B5044603A880E80E009DF81130012B0E
:1020A00021D1A36B23F48033A363E36823F4840377
:1020B00023F04003E360E36823F44013E3609DF8FA
:1020C0001830012B0AD02046FFF7B5FF9DF80E30DF
:1020D000012B1CD0BDE8104004B07047E36843F406
:1020E0008013E360EFE7E36843F04003E3602046DA
:1020F000FFF7A1FF9DF8153023B9A36B43F480339C
:10210000A363E3E7A36B23F48033A363DEE7A36851
:1021100043F00603A360A36843F02003A360D9E75C
:10212000022A0AD00922C36823F47053C360C3682B
:1021300043EA8223C36000207047234B0B44234AA9
:1021400093422FD9224B0B44224A93422CD9A1F51A
:102150007403A3F51053204A934227D9A1F1837346
:10216000A3F5E7431D4A934222D31D4B0B441D4A5E
:1021700093421FD91C4B0B441C4A93421CD31C4B4B
:102180000B441C4A934219D3A1F1B773A3F55853DA
:10219000194A934214D3194B0B44194A934211D252
:1021A0000722C0E70F22BEE70E22BCE70D22BAE7E6
:1021B0000C22B8E70B22B6E70A22B4E70922B2E7FD
:1021C0000822B0E70622AEE7405327FFFF340C0099
:1021D000401E1BFF3F420F007F4F120020D613000E
:1021E00060B6E5FE5FE3160000D3CEFE40771B002D
:1021F000C05BB3FEC091210020753800E05459FE49
:10220000E09C4100836843F0010383600020704735
:10221000836823F0010383600020704782B00023AD
:102220000193019B01330193019BB3F1706F15D8AA
:102230000369002BF5DA00230193890141F02001A5
:102240000161019B01330193019BB3F1706F08D8C9
:10225000036913F0200FF4D1002000E0032002B046
:1022600070470320FBE782B000230193019B0133F9
:102270000193019BB3F1706F13D80369002BF5DA5A
:102280000023019310230361019B01330193019B00
:10229000B3F1706F08D8036913F0100FF4D1002068
:1022A00000E0032002B070470320FBE7D0F80038BD
:1022B0001943C0F8001800207047000084B0F8B53A
:1022C000044607A880E80E00002306E003F1400260
:1022D00004EB82020021516001330E2BF6D99DF8E8
:1022E000266006BBD4F8043843F00203C4F804386F
:1022F000A36B43F40013A363A36B23F40023A36332
:10230000A36B23F48023A3630023C4F8003E9DF84D
:102310002130012B15D19DF81F306BB900212046CB
:10232000FFF7C4FF11E0A36B23F40013A363A36BB7
:1023300043F40023A363E7E701212046FFF7B6FF3C
:1023400003E003212046FFF7B1FF10212046FFF7ED
:1023500065FF054600B101252046FFF784FF00B167
:10236000012504F5006C0023CCF81030CCF81430B3
:10237000CCF81C300AE0CBB94FF00060C2F800097D
:1023800000220A614FF67F328A6001339DF81C10EB
:10239000994210D904EB431202F51061D2F80009FA
:1023A0000028E8DB0020C2F80009E9E74FF0904080
:1023B000C2F80009E4E700230AE0BBB14FF0904700
:1023C000C2F8007B002202614FF67F328260013347
:1023D000994210D904EB431202F53060D2F8007B29
:1023E000002FEADB0027C2F8007BEBE74FF0006725
:1023F000C2F8007BE6E7DCF8103023F48073CCF8F9
:1024000010300023A3616FF0804363619DF81E309C
:102410001BB9A36943F01003A361A2690B4B1343DB
:10242000A3619DF822301BB1A36943F00803A361A7
:10243000012E04D02846BDE8F84004B07047A369D7
:1024400043F0804343F00403A361F3E700383C808A
:10245000D0F8083803F00603022B04D0062B04D072
:102460002BB90020704702207047022070470F20D0
:10247000704710B591F800C04B78012B23D000F5C0
:10248000006ED0F81C380CF00F040122A24043EA81
:102490000243C0F81C3800EB4C10D0F8003B13F49A
:1024A000004F0ED1D0F8003B8A68C2F30A020979C6
:1024B00042EA8142134343F0805343F40043C0F89F
:1024C000003B002010BDD0F81C280CF00F0E03FAC2
:1024D0000EF39BB21343C0F81C3800EB4C10D0F83D
:1024E000003913F4004FECD1D0F800398A68C2F3F8
:1024F0000A02097942EA814242EA8C52134343F0CC
:10250000805343F40043C0F80039DAE730B40B7865
:102510004A78012A26D000EB4313D3F8002B002A77
:1025200052DBD0F83C480A7802F00F024FF0010C61
:102530000CFA02F224EA0242C0F83C28D0F81C2827
:10254000097801F00F010CFA01FC22EA0C42C0F8F4
:102550001C28D3F8001B234A0A40C3F8002B002094
:1025600030BC704700EB4313D3F80029002A1EDB70
:10257000D0F83C580A7802F00F02012404FA02F263
:1025800092B225EA0202C0F83C28D0F81C2809784B
:1025900001F00F018C40A4B222EA0402C0F81C280A
:1025A000D3F80019104A0A40C3F80029D7E7D3F836
:1025B000002942F00062C3F80029D3F8002942F054
:1025C0008042C3F80029D3E7D3F8002B42F0006221
:1025D000C3F8002BD3F8002B42F08042C3F8002B45
:1025E0009FE700BF0078F3EF007833EC10B483B0BE
:1025F000024600230193487801280BD00B7802EBA8
:102600004313D3F8000B00282DDB002003B05DF846
:10261000044B70470B7802EB4313D3F80049002CAE
:1026200001DB0020F2E7D3F8004944F00064C3F86E
:1026300000490B7802EB4313D3F8004944F080447F
:10264000C3F80049019B01330193019C42F21073CE
:102650009C42DBD80B7802EB4313D3F80039002BF4
:10266000F0DB0020D2E7D3F8000B40F00060C3F8A5
:10267000000B0B7802EB4313D3F8000B40F08040C3
:10268000C3F8000B019B01330193019842F21073D0
:10269000984208D80B7802EB4313D3F8003B002B89
:1026A000F0DB0020B2E70120B0E710B59DF808404C
:1026B00084B903334FEA930E4FF0000C08E000EBAF
:1026C000023303F5805351F8044B1C600CF1010CEC
:1026D000F445F4D3002010BDF0B583B00C784B78EE
:1026E000012B2DD000EB441C0CF530631D696FF3FA
:1026F00012051D611D696FF3DC451D61002C40F062
:10270000CE800C690CB18C680C618C680C621D6900
:10271000C4F312042C431C611C6944F400241C61A2
:10272000012A00F0DF800B79012B00F0E180DCF85A
:10273000003B43F00443CCF8003B002003B0F0BD65
:102740000B6973BB00EB4413D3F810596FF3DC45EE
:10275000C3F81059D3F8105945F40025C3F810599F
:10276000D3F810596FF31205C3F81059012A54D049
:1027700000EB4414D4F8003943F00443C4F80039A2
:102780000B79012B72D00B69002BD6D0D0F83438DE
:10279000097801F00F0101228A401343C0F8343850
:1027A000CBE700EB441303F510631D696FF31205CB
:1027B0001D611D696FF3DC451D6184B90E698D686B
:1027C000AE4200D90D611D6945F400251D611D69EA
:1027D0000E69C6F3120C45EA0C051D61C6E70D69CA
:1027E0008E683544013DB5FBF6F51E691FFA85FC80
:1027F000494F07EAC54535431D610D79012DE6D1E5
:102800001D6925F0C0451D611D694FEA4C7C0CF027
:10281000C04C45EA0C051D61D9E7CB691BB100EB43
:102820004412C2F814390B79012B08D000EB441480
:10283000D4F8003943F00443C4F800397DE7D0F8F8
:10284000083813F4807F08D100EB4412D2F8003925
:1028500043F00053C2F80039E8E700EB4412D2F825
:10286000003943F08053C2F80039DFE7D0F8083868
:1028700013F4807F0CD1D4F8003943F00053C4F82E
:10288000003900920B8A0A78C968FFF70EFF54E7F7
:10289000D4F8003943F08053C4F80039F1E70C69EB
:1028A00054B91C698D68C5F312052C431C611C6961
:1028B00044F400241C6133E78D682C44013CB4FBD4
:1028C000F5F4A4B204FB05F50D621D69124E06EA8B
:1028D000C4442C431C611C690D6AC5F312052C43CA
:1028E0001C611DE7CA68002A3FF41DAF5A611AE750
:1028F000D0F8083813F4807F06D1DCF8003B43F0B1
:102900000053CCF8003B12E7DCF8003B43F0805367
:10291000CCF8003B0BE700BF0000F81F10B5844661
:1029200008464FEA920E02F00302002305E00CF580
:102930008051096840F8041B01337345F7D37AB11D
:102940000CF5805CDCF800400021CBB2DB0024FAFF
:1029500003F300F8013B0131013A92B2002AF4D1AD
:1029600010BD0B784A78012A14D000EB4310D0F840
:10297000002B002A06DB2BB1D0F8003B23F080436C
:10298000C0F8003BD0F8003B43F40013C0F8003B14
:102990000020704700EB4310D0F80029002A06DB26
:1029A0002BB1D0F8003923F08043C0F80039D0F8BB
:1029B000003943F40013C0F80039E9E70B784A788E
:1029C000012A0ED000EB4310D0F8003B23F4001393
:1029D000C0F8003B0B79023BDBB2012B15D900207C
:1029E000704700EB4310D0F8003923F40013C0F80F
:1029F00000390B79023BDBB2012BF0D8D0F800395B
:102A000043F08053C0F80039E9E7D0F8003B43F0C9
:102A10008053C0F8003BE2E7D0F8003823F4FE63AF
:102A2000C0F80038D0F80038090101F4FE610B430A
:102A3000C0F8003800207047D0F8003E23F00303B0
:102A4000C0F8003ED0F8043823F00203C0F8043880
:102A500000207047D0F8003E23F00303C0F8003E8A
:102A6000D0F8043843F00203C0F80438002070475F
:102A70004269806910407047D0F8183800F500604E
:102A8000C0691840000C7047D0F8183800F5006095
:102A9000C069184080B2704700EB4111D1F8082B93
:102AA00000F50060406910407047D0F81028D0F859
:102AB000343801F00F0C23FA0CF3DB01DBB21343C3
:102AC00000EB411000F510608068184070474069C5
:102AD00000F00100704738B50546C36823F0C043D5
:102AE000C360012913D019BBC36843F08043C3609E
:102AF00000240A2000F020FD0A342846FFF7E7FFF3
:102B000008B1C72CF5D9C82C14D0002038BDC36833
:102B100043F00053C36000240A2000F00DFD0A3486
:102B20002846FFF7D4FF0128EDD0C72CF4D9EAE7F7
:102B30000120EBE70120E9E7D0F800396FF30A0341
:102B4000C0F80039D0F8043843F48073C0F8043872
:102B50000020704710B4046C154B9C4203D9D0F888
:102B6000003B002B16DB0024C0F8104BD0F8104BB4
:102B700044F40024C0F8104BD0F8104B44F0180473
:102B8000C0F8104BD0F8104B44F0C044C0F8104BC4
:102B9000012903D000205DF8044B7047C0F8142BC6
:102BA000D0F8003B43F08023C0F8003BF2E700BFC1
:102BB0000A30544F002800F0E08170B582B004461E
:102BC000036813F0010F3BD09F4B9B6803F00C038D
:102BD000042B2CD09C4B9B6803F00C03082B21D0BA
:102BE0006368B3F5803F4FD0B3F5A02F52D0964B1A
:102BF0001A6822F480321A601A6822F480221A605D
:102C00006368002B50D000F091FC05468E4B1B688A
:102C100013F4003F14D100F089FC401B6428F5D95F
:102C20000320B1E1884B5B6813F4800FD8D0864B4A
:102C30001B6813F4003F03D06368002B00F09F81F2
:102C4000236813F0020F54D07F4B9B6813F00C0FD6
:102C50003ED07D4B9B6803F00C03082B33D0E36818
:102C6000002B68D0794B01221A6000F05FFC05460A
:102C7000754B1B6813F0020F54D100F057FC401B3A
:102C80000228F5D903207FE16F4A136843F48033AB
:102C90001360B5E76C4B1A6842F480221A601A6818
:102CA00042F480321A60ABE700F040FC0546664B08
:102CB0001B6813F4003FC3D000F038FC401B6428AD
:102CC000F5D9032060E1604B5B6813F4800FC6D137
:102CD0005D4B1B6813F0020F03D0E368012B40F03B
:102CE0005081594A136823F0F803216943EAC1036C
:102CF0001360236813F0080F42D063696BB3534B22
:102D00000122C3F8802E00F011FC05464E4B5B6F8C
:102D100013F0020F34D100F009FC401B0228F5D952
:102D2000032031E1484A136823F0F803216943EA9C
:102D3000C1031360DDE7454B00221A6000F0F6FB8B
:102D40000546414B1B6813F0020FD2D000F0EEFB9A
:102D5000401B0228F5D9032016E13C4B0022C3F8A2
:102D6000802E00F0E3FB0546374B5B6F13F0020F3C
:102D700006D000F0DBFB401B0228F5D9032003E15D
:102D8000236813F0040F77D02F4B1B6C13F0805F78
:102D900033D1002301932C4B1A6C42F080521A64F9
:102DA0001B6C03F080530193019B0125284B1B688A
:102DB00013F4807F23D0A368012B34D0052B38D0A7
:102DC000214B1A6F22F001021A671A6F22F00402D7
:102DD0001A67A368002B3DD000F0A8FB06461A4BEB
:102DE0001B6F13F0020F46D100F0A0FB801B41F2D5
:102DF00088339842F3D90320C6E00025D6E7144A69
:102E0000136843F48073136000F090FB0646104B88
:102E10001B6813F4807FCED100F088FB801B022852
:102E2000F5D90320B0E0084A136F43F0010313679C
:102E3000CFE7054B1A6F42F004021A671A6F42F08F
:102E400001021A67C5E700BF003802400000474290
:102E50000070004000F06AFB0646524B1B6F13F0F7
:102E6000020F08D000F062FB801B41F288339842C9
:102E7000F3D9032088E0EDB9A369002B00F083802B
:102E8000484A926802F00C02082A51D0022B17D04F
:102E9000454B00221A6600F049FB0446414B1B6873
:102EA00013F0007F42D000F041FB001B0228F5D94F
:102EB000032069E03B4A136C23F080531364DBE783
:102EC000394B00221A6600F031FB0546354B1B6872
:102ED00013F0007F06D000F029FB401B0228F5D933
:102EE000032051E0E369226A1343626A43EA8213D2
:102EF000A26A5208013A43EA0243E26A43EA0263E1
:102F0000284A5360284B01221A6600F00FFB044642
:102F1000244B1B6813F0007F06D100F007FB001B59
:102F20000228F5D903202FE000202DE000202BE01F
:102F3000012B2BD01B4B5B6803F48001E2699142AB
:102F400026D103F03F02216A8A4223D1616A47F603
:102F5000C0721A40B2EB811F1ED103F44031A26A45
:102F60005208013AB1EB024F18D103F07063E26AE4
:102F7000B3EB026F14D1002006E00120704701205E
:102F800002E0012000E0002002B070BD0120FBE75C
:102F90000120F9E70120F7E70120F5E70120F3E739
:102FA0000120F1E7003802400000474208B5264BF7
:102FB0009B6803F00C03042B41D0082B41D1224B1A
:102FC0005A6802F03F025B6813F4800F12D01E4B68
:102FD0005968C1F388111D480023A1FB0001FDF7CA
:102FE00037F9194B5B68C3F3014301335B00B0FB56
:102FF000F3F008BD144B5868C0F388104FEA401C2A
:10300000BCEB000C6EEB0E0E4FEA8E1343EA9C6392
:103010004FEA8C11B1EB0C0163EB0E03DB0043EACA
:103020005173C90011EB000C43F100039902002316
:103030004FEA8C2041EA9C51FDF70AF9D1E7034899
:10304000D7E70348D5E700BF0038024040787D014C
:103050000024F400002800F09B8070B50D46044663
:103060004F4B1B6803F007038B4208D2CBB24C4A8C
:103070001370136803F007038B4240F08B802368C2
:1030800013F0020F17D013F0040F04D0454A9368D1
:1030900043F4E0539360236813F0080F04D0414ACF
:1030A000936843F4604393603E4A936823F0F003CF
:1030B000A1680B439360236813F0010F32D063685B
:1030C000012B21D09A1E012A25D9364A126812F006
:1030D000020F61D033498A6822F0030213438B60E8
:1030E00000F024FA06462F4B9B6803F00C0362683D
:1030F000B3EB820F16D000F019FA801B41F288332F
:103100009842F0D9032042E0264A126812F4003FA8
:10311000E0D101203BE0234A126812F0007FD9D1B0
:10312000012034E01E4B1B6803F00703AB4207D9B4
:10313000EAB21B4B1A701B6803F00703AB422DD198
:10314000236813F0040F06D0164A936823F4E05363
:10315000E1680B439360236813F0080F07D0114A0E
:10316000936823F46043216943EAC1039360FFF746
:103170001DFF0C4B9B68C3F303130B4AD35CD84071
:103180000A4B18600A4B1868FDF77CFE002070BDE2
:10319000012070470120FAE70120F8E70120F6E757
:1031A000003C024000380240908500086C0000207E
:1031B00068000020014B1868704700BF6C000020B9
:1031C00008B5FFF7F7FF044B9B68C3F38223034A5C
:1031D000D35CD84008BD00BF003802408885000895
:1031E00008B5FFF7E7FF044B9B68C3F34233034A7C
:1031F000D35CD84008BD00BF003802408885000875
:103200000F2303600B4B9A6802F0030242609A6836
:1032100002F0F00282609A6802F4E052C2609B6899
:10322000DB0803F4E0530361034B1B6803F007035F
:103230000B60704700380240003C024000230F2B17
:1032400000F2D78070B582B065E085684FEA430E22
:10325000032404FA0EF425EA0405CC6804FA0EF4FB
:103260002C438460446824EA02044A68C2F30012D2
:103270009A40224342605CE0DC08083450F8242085
:1032800003F00705AD004FF00F0E0EFA05FE22EA1F
:103290000E0E0A69AA4042EA0E0240F824205CE0C1
:1032A000042200E0002202FA0EF22A430234514DB9
:1032B00045F82420504A94686FEA0C0224EA0C0571
:1032C0004E6816F4801F01D04CEA04054A4CA560F4
:1032D000E46802EA04054E6816F4001F01D04CEAC7
:1032E0000405454CE560646802EA04054E6816F47E
:1032F000003F01D04CEA04053F4C65602468224041
:103300004D6815F4803F01D04CEA04023A4C22602B
:1033100001330F2B6BD801229A400C6804EA020C8F
:1033200032EA0404F4D14C6804F00304013C012C9B
:103330008BD94A6802F00302032A09D0C4685D00F1
:103340000322AA4024EA02048A68AA402243C260F7
:103350004A6802F00302022A8ED004684FEA430E44
:10336000032202FA0EF224EA02044A6802F003027F
:1033700002FA0EF2224302604A6812F4403FC7D0BC
:10338000002201921D4A546C44F480445464526CEF
:1033900002F480420192019A9C08A51C154A52F839
:1033A000255003F0030E4FEA8E0E0F2202FA0EF2A2
:1033B00025EA0205124A90423FF474AF02F580629A
:1033C00090420ED002F5806290420CD002F58062ED
:1033D00090420AD002F5806290423FF461AF07222A
:1033E00061E701225FE702225DE703225BE702B0AB
:1033F00070BD704700380140003C01400038024079
:10340000000002400AB18161704709048161704780
:10341000002807DB00F01F02400901239340024A05
:1034200042F82030704700BF00E100E0002808DBD0
:103430000901C9B200F1604000F5614080F8001355
:10344000704700F00F000901C9B2014B19547047D1
:1034500014ED00E000B500F00700C0F1070CBCF16E
:10346000040F28BF4FF0040C031D062B0FD9C31EF9
:103470004FF0FF3E0EFA0CF021EA000199400EFADF
:1034800003FE22EA0E0241EA02005DF804FB00237B
:10349000EEE70000074AD36823F4E0631B041B0C2B
:1034A000000200F4E060034343F0BF6343F40033E1
:1034B000D360704700ED00E010B50446054BD868B6
:1034C000C0F30220FFF7C6FF01462046FFF7AEFF1C
:1034D00010BD00BF00ED00E008B5FFF799FF08BD83
:1034E00008B50B4B1A6842F400721A601A6842F46D
:1034F00080621A601A6842F480721A600320FFF733
:10350000C9FF0F20FDF7BEFCFDF79AFC002008BDA7
:10351000003C0240034A1168034B1B780B441360C4
:10352000704700BF2C28002064000020014B186861
:10353000704700BF2C28002038B50446FFF7F6FF7F
:103540000546B4F1FF3F02D0044B1B781C44FFF743
:10355000EDFF401BA042FAD338BD00BF640000203D
:1035600003685A6912F4806F01D1002070476FF42C
:1035700080625A6100230363202280F83D2080F896
:103580003E30026C42F00402026480F83C300120BC
:1035900070472DE9F04106460C46174698463BE039
:1035A000FFF7C4FF069BC01A404502D8B8F1000FD0
:1035B00032D1012D18D033689B6924EA03039BB2F2
:1035C000B3FA83F35B099F4226D1002333632022A1
:1035D00086F83D2086F83E30326C42F0200232649C
:1035E00086F83C30012027E033685B6924EA030356
:1035F0009BB2B3FA83F35B09E5E733685B6924EABE
:10360000030C1FFA8CFCBCFA8CFC4FEA5C1C67456F
:1036100011D1B8F1FF3FC3D1C4F30745012DECD060
:1036200033689B6924EA030C1FFA8CFCBCFA8CFCFF
:103630004FEA5C1CEBE70020BDE8F0812DE9F84380
:1036400005460E469046994653E01A6842F40072C9
:103650001A602B686FF480625A6100232B6320226A
:1036600085F83D2085F83E302A6C42F004022A6439
:1036700085F83C3001204AE0FFF758FFA0EB090035
:10368000404502D8B8F1000F33D1012F17D02B6875
:103690009B6926EA03039BB2003B18BF012343B397
:1036A00000232B63202285F83D2085F83E302A6CCC
:1036B00042F020022A6485F83C30012027E02B6884
:1036C0005B6926EA03039BB2003B18BF0123E6E7D0
:1036D0002B689C6926EA0404A4B2003C18BF0124AC
:1036E000A4B12B685A6912F4806FAED1B8F1FF3FD4
:1036F000C2D1C6F30747012FEAD12B685C6926EADD
:103700000404A4B2003C18BF0124E9E70020BDE88E
:10371000F88370B504460D46164623685B6913F0BE
:10372000800F21D12046FFF71BFFF8B9B5F1FF3F0D
:10373000F3D0FFF7FBFE801BA84201D8002DECD18F
:1037400023685B6913F0800FE7D1002323632022F5
:1037500084F83D2084F83E30226C42F0200222643E
:1037600084F83C30012000E0002070BD0120FCE71F
:103770002DE9F04784B004460D46164699460C9F45
:10378000DDF834800268136843F4806313600368D3
:10379000196841F480711960CDF800803B46002221
:1037A0004FF00111FFF7F5FE70B95FFA85FA236853
:1037B00005F0FE051D6143463A4641492046FFF7A4
:1037C0003DFF68B1012008E023681B6813F4807F87
:1037D00002D04FF400732364032004B0BDE8F087E7
:1037E0000023039323685A6903929B690393039B05
:1037F000424639462046FFF78CFF80B9B9F1010FE8
:1038000018D12368F6B21E61424639462046FFF7BA
:1038100080FF68B3236C042B24D00120DDE7236CE8
:10382000042B01D00120D8E72268136843F4007309
:103830001360F7E72368320A1A6142463946204688
:10384000FFF767FF18B92368F6B21E61DCE7236C47
:10385000042B01D00120C0E72268136843F40073F1
:103860001360F7E72268136843F400731360D4E72A
:103870002268136843F480731360CDF800803B46E0
:1038800000224FF001112046FFF783FE68B922683D
:103890004AF00103136143463A4609492046FFF7BF
:1038A000CDFE002899D0012097E723681B6813F408
:1038B000807F02D04FF40073236403208DE700BFA4
:1038C0000200010070B504460D46164614E06FF084
:1038D00010025A6100232363202284F83D2084F8DB
:1038E0003E30226C226484F83C30012025E02368BD
:1038F0005B6913F0400F10D02368586910F0400F37
:103900001AD1586910F0100FE1D1FFF70FFE801B9C
:10391000A842ECD8002DEFD1E9E700232363202251
:1039200084F83D2084F83E30226C42F0200222646C
:1039300084F83C30012000E0002070BD002800F039
:10394000CC8070B5044690F83D30002B77D024230E
:1039500084F83D302268136823F001031360226865
:10396000136843F4004313602268136823F4004390
:103970001360FFF725FC62685A4B9A4264D85A4B91
:1039800098428CBF00230123002B40F0A8805749A8
:10399000A1FB00318B0C25686A6822F03F0242EAE5
:1039A00091426A6021680A6A22F03F0266684D4DC2
:1039B000AE424FD8013313430B622168CA6922F427
:1039C0004F4222F0FF026568464B9D424CD8431E91
:1039D0006D00B3FBF5F3013340F6FC70034278D081
:1039E000C3F30B031A43CA6121680B6823F0C003B9
:1039F000E269206A024313430B6021688B6823F459
:103A0000034323F0FF032269E068024313438B6002
:103A10002168CB6823F0FF036269A0690243134366
:103A2000CB602268136843F0010313600020206418
:103A3000202384F83D30206384F83E0070BD80F878
:103A40003C30FCF7BFFD82E7294B98428CBF002336
:103A5000012399E74FF4967505FB03F3254DA5FB6C
:103A600003539B090133A6E7A668BEB9431E05EBC5
:103A7000450CB3FBFCF30133C3F30B03B3FA83F33D
:103A80005B0943BBC6B9431E05EB4505B3FBF5F324
:103A90000133C3F30B0343F40043A3E7431E05EBD9
:103AA000850C0CEB8C0CB3FBFCF30133C3F30B0361
:103AB000B3FA83F35B09E4E7431E05EB850505EBE9
:103AC0008505B3FBF5F30133C3F30B0343F4404324
:103AD00088E7042386E7012384E70120704701205B
:103AE000ACE700BFA08601007F841E0083DE1B437D
:103AF000FF083D00D34D62102DE9F04387B0044626
:103B00000F4690469946109EFFF710FD054694F823
:103B10003D00C0B2202804D00227384607B0BDE8D7
:103B2000F08300951923012288492046FFF731FDD3
:103B3000002840F04D8194F83C30012B00F04A8180
:103B4000012384F83C3023681A6812F0010F03D176
:103B50001A6842F001021A602268136823F40063B5
:103B60001360222384F83D30402384F83E30002344
:103B700023640E9B6362BDF83C306385638D2385AF
:103B8000734BE362019500964B4642463946204608
:103B9000FFF7EEFD0746002840F01E81238D5BB93C
:103BA000029323685A6902929A690292029A1A68E9
:103BB00042F400721A6075E0012B0AD0022B1AD071
:103BC0000023059323685A6905929B690593059B19
:103BD00068E02268136823F4806313600023039372
:103BE00023685A6903929A690392039A1A6842F405
:103BF00000721A6056E02268136823F48063136031
:103C00002268136843F4006313600023049323685D
:103C10005A6904929B690493049B43E02A46314607
:103C20002046FFF74FFE002840F0D88023681A692D
:103C3000636A1A70636A01336362238D013B2385D3
:103C4000638D9BB2013B9BB263852BE000953346AD
:103C5000002240492046FFF79CFC002840F0C0802D
:103C60002268136843F40073136023681A69636A57
:103C70001A70626A531C6362238D013B2385638D36
:103C80009BB2013B9BB2638523681B695370636AD7
:103C900001336362238D013B2385638D9BB2013B1E
:103CA0009BB26385238D002B00F08980032B53D8B2
:103CB000012BB3D0022BC9D00095334600222549F1
:103CC0002046FFF766FC002840F08C8022681368CD
:103CD00023F48063136023681A69636A1A70636A45
:103CE00001336362238D013B2385638D9BB2013BCE
:103CF0009BB2638500953346002216492046FFF7A4
:103D000048FC002870D12268136843F400731360E4
:103D100023681A69636A1A70626A531C6362238D8E
:103D2000013B2385638D9BB2013B9BB26385236876
:103D30001B695370636A01336362238D013B2385E2
:103D4000638D9BB2013B9BB26385ABE70200100021
:103D50000000FFFF040001002A4631462046FFF71D
:103D6000B1FD002842D123681A69636A1A70636A38
:103D700001336362228D013A92B22285638D9BB238
:103D8000013B9BB263852368596911F0040F89D008
:103D9000032A0FD023681A69636A1A70636A0133B1
:103DA0006362238D013B2385638D9BB2013B9BB2F4
:103DB000638577E71A6822F480621A60EAE72023B5
:103DC00084F83D30002384F83E3084F83C30A4E68B
:103DD0000227A2E60227A0E601279EE601279CE62D
:103DE00001279AE6012798E6012796E6012794E63F
:103DF00000285AD010B50446436A33B94368B3F576
:103E0000827F05D00023C36102E000230361436188
:103E10000023A36294F85130002B40D0022384F891
:103E200051302268136823F040031360636803F481
:103E30008273A26802F404421343E26802F400624F
:103E40001343226902F002021343626902F0010285
:103E50001343A26902F400721343E26902F03802CC
:103E60001343226A02F080021343A26A02F4005252
:103E7000216813430B60638B03F00403626A02F052
:103E80001002216813434B602268D36923F4006356
:103E9000D36100206065012384F8513010BD84F89F
:103EA00050302046FCF720FCB8E7012070477047EF
:103EB00090F83D30DBB2012B2FD1022380F83D304A
:103EC0000268D36843F00103D3600368154A934244
:103ED00018D0B3F1804F15D0A2F57C42934211D097
:103EE00002F5806293420DD002F58062934209D0C0
:103EF00002F59A32934205D01A6842F001021A6024
:103F0000002070479A6802F00702062A07D01A6854
:103F100042F001021A600020704701207047002023
:103F2000704700BF000001407047704770477047FE
:103F300070B504460368DE681D6915F0020F10D0E5
:103F400016F0020F0DD06FF002021A610123037701
:103F500003689B6913F0030F5ED0FFF7E6FF0023B1
:103F6000237715F0040F12D016F0040F0FD023683A
:103F70006FF004021A610223237723689B6913F40C
:103F8000407F4FD02046FFF7D0FF0023237715F066
:103F9000080F12D016F0080F0FD023686FF0080238
:103FA0001A61042323772368DB6913F0030F40D0E1
:103FB0002046FFF7BAFF0023237715F0100F12D029
:103FC00016F0100F0FD023686FF010021A6108234B
:103FD00023772368DB6913F4407F31D02046FFF755
:103FE000A4FF0023237715F0010F02D016F0010F74
:103FF0002DD115F0800F02D016F0800F2FD115F0C3
:10400000400F02D016F0400F31D115F0200F02D032
:1040100016F0200F33D170BDFFF786FF2046FFF763
:1040200085FF9CE72046FFF77FFF2046FFF77EFFD6
:10403000ABE72046FFF778FF2046FFF777FFBAE7A8
:104040002046FFF771FF2046FFF770FFC9E723689E
:104050006FF001021A612046FCF75AF9C9E723689C
:104060006FF080021A61204600F091F8C7E72368DC
:104070006FF040021A612046FFF759FFC5E7236839
:104080006FF020021A61204600F080F8C3E70000BC
:104090000368274A90420ED0B0F1804F0BD0A2F5B2
:1040A0007C42904207D002F58062904203D002F534
:1040B0008062904203D123F070034A6813431C4A84
:1040C00090421AD0B0F1804F17D0A2F57C429042B6
:1040D00013D002F5806290420FD002F580629042C8
:1040E0000BD002F59A32904207D002F580629042DE
:1040F00003D002F58062904203D123F44073CA6872
:10410000134323F080034A6913438A68C2620A6832
:104110008262074A904207D0026842F004020260BD
:1041200001224261036070470A690263F4E700BF3D
:104130000000014040B310B5044690F83D30F3B1A3
:10414000022384F83D30214651F8040BFFF7A0FF0D
:10415000012384F8463084F83E3084F83F3084F8F8
:10416000403084F8413084F8423084F8433084F899
:10417000443084F8453084F83D30002010BD80F88C
:104180003C30FFF794FEDBE7012070477047704733
:1041900030B4036A23F001030362036A446882694E
:1041A00022F073020D682A4323F002030D692B43AA
:1041B00023F001034D682B430F4DA84207D0446004
:1041C0008261CA6842630362002030BC704723F0FA
:1041D00008034D6943EA850323F004038D6843EA2D
:1041E000850324F480748D692C4324F40074CD6914
:1041F00044EA4504E3E700BF0000014030B4036A2D
:1042000023F010030362036A4468826922F4E642E1
:104210000D6842EA052223F020030D6943EA0513E5
:1042200023F010034D6843EA0513104DA84207D050
:1042300044608261CA6882630362002030BC7047B8
:1042400023F080034D6943EA851323F040038D6812
:1042500043EA851324F480648D6944EA850424F4D8
:104260000064CD6944EAC504E2E700BF00000140F4
:1042700030B4036A23F480730362036A4468C2693A
:1042800022F073020D682A4323F400730D6943EA98
:10429000052323F480734D6843EA05230F4DA8429C
:1042A00007D04460C261CA68C2630362002030BCA8
:1042B000704723F400634D6943EA852323F4806348
:1042C0008D6843EA852324F480548D6944EA0514FB
:1042D00024F40054CD6944EA4514E2E700000140AB
:1042E00030B4036A23F480530362036A4468C269EA
:1042F00022F4E6420D6842EA052223F400530D69D8
:1043000043EA053323F480534D6843EA0533084DEF
:10431000A84207D04460C261CA68026403620020F8
:1043200030BC704724F480448D6944EA8514F1E779
:10433000000001400368244A90420ED0B0F1804F43
:104340000BD0A2F57C42904207D002F580629042E9
:1043500003D002F58062904203D123F070034A68D3
:104360001343194A90421AD0B0F1804F17D0A2F5EA
:104370007C42904213D002F5806290420FD002F549
:10438000806290420BD002F59A32904207D002F53B
:104390008062904203D002F58062904203D123F400
:1043A0004073CA68134303608B68C3620B888362DF
:1043B000054B984205D0436943F001034361002057
:1043C00070470B690363F6E70000014008B50B4630
:1043D0001146B3F5807F14D008D8012B0ED0102BD6
:1043E00002D1FFF70BFF0BE0012009E0B3F5805F7E
:1043F00002D1FFF775FF03E0012001E0FFF7C8FEDF
:1044000008BDFFF735FFFBE710B4046891FAA1F38C
:10441000A3B1B3FA83F35B004FF0030C0CFA03F380
:1044200024EA030391FAA1F151B1B1FA81F14900F3
:104430008A40134303605DF8044B70472023EAE78A
:104440002021F4E710B4846891FAA1F3A3B1B3FA80
:1044500083F35B004FF0030C0CFA03F324EA03032D
:1044600091FAA1F151B1B1FA81F149008A401343A7
:1044700083605DF8044B70472023EAE72021F4E7CE
:1044800010B4C46891FAA1F3A3B1B3FA83F35B004B
:104490004FF0030C0CFA03F324EA030391FAA1F1A1
:1044A00051B1B1FA81F149008A401343C3605DF80C
:1044B000044B70472023EAE72021F4E710B4046A94
:1044C00091FAA1F3A3B1B3FA83F39B004FF00F0C61
:1044D0000CFA03F324EA030391FAA1F151B1B1FA02
:1044E00081F189008A40134303625DF8044B7047F1
:1044F0002023EAE72021F4E710B4446A090A91FA7C
:10450000A1F3A3B1B3FA83F39B004FF00F0C0CFAA5
:1045100003F324EA030491FAA1F151B1B1FA81F154
:1045200089008A40144344625DF8044B704720239D
:10453000EAE72021F4E7F8B507460E460D6895FA3C
:10454000A5F515B1B5FA85F51AE0202518E0B26891
:1045500021463846FFF776FFF2687B6823EA0403BA
:1045600004FB02F213437B6016E072692146384671
:10457000FFF7C2FF726821463846FFF745FF013555
:10458000346834FA05F21DD00122AA401440F6D056
:104590007368013B012BDAD9326921463846FFF7AF
:1045A0006FFF7368022BE5D194FAA4F3002BDCD0E3
:1045B000B3FA83F3072BD8D8726921463846FFF740
:1045C0007DFFD7E70020F8BD10B5044602681369E7
:1045D00023F44053C1680B431361836802691A4393
:1045E00043691A43C3691A430168CB6823F416432D
:1045F00023F00C031343CB600268536923F4407328
:1046000081690B4353610368314A934206D002F536
:104610008062934202D0FEF7D3FD01E0FEF7E0FD99
:10462000E369B3F5004F29D00021031849411B1855
:1046300041F10001C90041EA5371DB0018186368B9
:104640004FEA83024FEA937341F10001FBF700FE4A
:10465000204AA2FB00314909642303FB11031B011B
:104660003233A2FB03235B0903F0F00202EB0112D9
:1046700003F00F03216813448B6010BD0023021860
:1046800043EB0301121841F10001C90041EA5271E4
:10469000D200101841F10001626892185B41FBF7EB
:1046A000D7FD0C4AA2FB00314909642303FB110327
:1046B000DB003233A2FB03235B095A0002F4F872D9
:1046C00002EB011203F00703216813448B60D4E767
:1046D000001001401F85EB5160B310B5044690F8FF
:1046E000413013B3242384F841302268D36823F483
:1046F0000053D3602046FFF767FF2268136923F455
:10470000904313612268536923F02A03536122689E
:10471000D36843F40053D36000206064202384F8FE
:10472000413084F84230606310BD80F84030FCF7BF
:104730000DFBD7E701207047034AD2F8883043F4D5
:104740007003C2F88830704700ED00E000F1080304
:1047500043604FF0FF328260C36003610023036057
:10476000704700230361704743684B609A688A6012
:10477000516099600861036801330360704730B489
:104780000D68B5F1FF3F11D000F108031C465B68CE
:104790001A68AA42FAD963684B6099608C606160BC
:1047A000086103680133036030BC70470469F2E7B5
:1047B0000369416882688A60416851605A68824230
:1047C00006D0002202611A68013A1A601868704720
:1047D00082685A60F5E710B5044601F0CBFCA26B85
:1047E000E36B9A4204D0002401F0E6FC204610BDA1
:1047F0000124F9E710B5044601F0BCFCA36B23B912
:10480000012401F0D9FC204610BD0024F9E770B561
:1048100004461546866B026C5AB903681BB100202A
:104820000136A66370BD806801F056F80023A360CE
:10483000F6E76DB9406803F07BF86368226C1344B7
:104840006360A268934219D3236863602846E7E750
:10485000C06803F06DF8E368226C51429B1AE36074
:104860002268934202D2A3680B44E360022D01D078
:104870000020D5E726B1013E0020D1E72846CFE74A
:104880000020CDE70346026C6AB110B50846D9682E
:104890001144D9609C68A14201D31968D960D968D4
:1048A00003F046F810BD704738B5054601F062FCCC
:1048B00095F8454064B201E0013C64B2002C0ADD89
:1048C0006B6A43B105F1240000F05CFF0028F3D0CF
:1048D00000F0ECFFF0E7FF2385F8453001F06CFCB9
:1048E00001F048FC95F8444064B201E0013C64B238
:1048F000002C0ADD2B6943B105F1100000F042FFE6
:104900000028F3D000F0D2FFF0E7FF2385F8443011
:1049100001F052FC38BD38B5E0B10D46044601F057
:1049200029FC2368E26B216C01FB0230A0600020AF
:10493000A0636360013A02FB0133E360FF2384F864
:10494000443084F84530FDB9236963B901F034FC83
:10495000012038BD4FF0500383F31188BFF36F8FF0
:10496000BFF34F8FFEE704F1100000F00BFF0028AB
:10497000ECD04FF0E0234FF08052C3F8042DBFF38A
:104980004F8FBFF36F8FE1E704F11000FFF7DEFEFA
:1049900004F12400FFF7DAFED8E738B51D46049C81
:1049A0000B4649B92460E063236401212046FFF7E8
:1049B000B2FF84F84C5038BD2260F4E740B94FF0A4
:1049C000500383F31188BFF36F8FBFF34F8FFEE760
:1049D00010B584B01C46844653B192B189B94FF0EA
:1049E000500383F31188BFF36F8FBFF34F8FFEE740
:1049F0004FF0500383F31188BFF36F8FBFF34F8FD6
:104A0000FEE76AB150230393039B502B13D04FF062
:104A1000500383F31188BFF36F8FBFF34F8FFEE70F
:104A20000029EFD04FF0500383F31188BFF36F8F4D
:104A3000BFF34F8FFEE7039B012384F846300094B9
:104A40009DF818306046FFF7A8FF204604B010BD5F
:104A500040B94FF0500383F31188BFF36F8FBFF35A
:104A60004F8FFEE7F0B583B00D461446064601FBB6
:104A700000F0503001F052FA074650B1002380F8A0
:104A800046300090234600F1500229463046FFF799
:104A900084FF384603B0F0BDF0B585B0019288B10F
:104AA0000F461D460446B1B1022D20D1E36B012B08
:104AB0001DD04FF0500383F31188BFF36F8FBFF306
:104AC0004F8FFEE74FF0500383F31188BFF36F8FD2
:104AD000BFF34F8FFEE7036C002BE5D04FF0500380
:104AE00083F31188BFF36F8FBFF34F8FFEE700F0A2
:104AF000E3FE064658B9019B002B48D04FF0500307
:104B000083F31188BFF36F8FBFF34F8FFEE700264B
:104B10003DE02A4639462046FFF779FE636A7BB9B5
:104B200048B14FF0E0234FF08052C3F8042DBFF39B
:104B30004F8FBFF36F8F01F03FFB012005B0F0BD39
:104B400004F1240000F01EFE0028F4D04FF0E02312
:104B50004FF08052C3F8042DBFF34F8FBFF36F8F18
:104B6000E9E701F029FB0020E8E702A800F050FE89
:104B7000012619E0002384F8443021E0002384F862
:104B8000453023E02046FFF78FFE00F0C5FC01F022
:104B9000F1FAA26BE36B9A42BBD3022DB9D0019B11
:104BA000002BDED0002EE0D001F006FB00F01AFC56
:104BB00001F0E0FA94F8442052B2B2F1FF3FD9D0AC
:104BC00094F8452052B2B2F1FF3FD7D001F0F4FA89
:104BD00001A902A800F028FED8B92046FFF7FBFD86
:104BE0000028CFD0019904F1100000F097FD204675
:104BF000FFF75AFE00F090FC0028C8D14FF0E023E8
:104C00004FF08052C3F8042DBFF34F8FBFF36F8F67
:104C1000BDE72046FFF748FE00F07EFC00208DE750
:104C20002DE9F84390B10F4616461C460546B1B132
:104C3000022C20D1EB6B012B1DD04FF0500383F3DE
:104C40001188BFF36F8FBFF34F8FFEE74FF0500314
:104C500083F31188BFF36F8FBFF34F8FFEE7036CB1
:104C6000002BE5D04FF0500383F31188BFF36F8F13
:104C7000BFF34F8FFEE701F0A3FBEFF311884FF076
:104C8000500383F31188BFF36F8FBFF34F8FAA6B6D
:104C9000EB6B9A4206D3022C04D0002088F31188D3
:104CA000BDE8F88395F845904FFA89F9AB6B224639
:104CB00039462846FFF7ABFDB9F1FF3F06D009F1B1
:104CC00001035BB285F845300120E7E76B6A0BB959
:104CD0000120E3E705F1240000F054FD18B126B1EE
:104CE00001203060DAE70120D8E70120D6E7F0B5EF
:104CF00085B0019290B10F460446C1B100F0DCFDD1
:104D0000064600BB019B002B5ED04FF0500383F39F
:104D10001188BFF36F8FBFF34F8FFEE74FF0500343
:104D200083F31188BFF36F8FBFF34F8FFEE7036CE0
:104D3000002BE3D04FF0500383F31188BFF36F8F44
:104D4000BFF34F8FFEE700263EE039462046FFF7CF
:104D500099FD013DA563236923B901F02DFA0120D6
:104D600005B0F0BD04F1100000F00CFD0028F4D0F7
:104D70004FF0E0234FF08052C3F8042DBFF34F8F64
:104D8000BFF36F8FE9E701F017FA0020E8E702A808
:104D900000F03EFD012621E0002384F8443029E0A4
:104DA000002384F845302BE02046FFF77DFD00F01E
:104DB000B3FB09E02046FFF777FD00F0ADFB20468E
:104DC000FFF718FD00283FD101F0D4F9A56B002DA5
:104DD000BBD1019B002BD6D0002ED8D001F0ECF92E
:104DE00000F000FB01F0C6F994F844305BB2B3F177
:104DF000FF3FD1D094F845305BB2B3F1FF3FCFD045
:104E000001F0DAF901A902A800F00EFD0028D1D1C5
:104E10002046FFF7EFFC0028C6D0019904F12400DA
:104E200000F07CFC2046FFF73FFD00F075FB0028FA
:104E3000CAD14FF0E0234FF08052C3F8042DBFF3E6
:104E40004F8FBFF36F8FBFE7002089E70023072B49
:104E50000CD8074A52F833200AB10133F7E7044A65
:104E600042F8331002EBC30250607047704700BF36
:104E70003028002070B504460D46164601F07AF938
:104E800094F844305BB2B3F1FF3F0DD094F8453055
:104E90005BB2B3F1FF3F0BD001F08EF9A36B5BB1B6
:104EA0002046FFF701FD70BD002384F84430EDE794
:104EB000002384F84530EFE73246294604F1240008
:104EC00000F044FCECE70000084B1B681B6823B9AA
:104ED000074B4FF0FF321A607047044B1B68DB68CA
:104EE000DB685A68024B1A60704700BFE028002058
:104EF000782800202DE9F04780460D461746994650
:104F0000089EDDF824A00A9C9200A521206B02F0E7
:104F100085FC236B07F18042013A03EB820727F0FF
:104F20000707002D61D04FF0000CBCF10F0F09D81E
:104F300015F80C3004EB0C0282F8343013B10CF18C
:104F4000010CF2E7002384F84330062E00D9062630
:104F5000E662E66400252565201DFFF702FC04F1EA
:104F60001800FFF7FEFB2461C6F10706A661646224
:104F7000C4F8785184F87C514FF49072294604F1BA
:104F8000580002F04BFC1B4BE36503F168022266FC
:104F9000D033636601220023C4E93C2343F20E337D
:104FA000A4F8F8304AF6CD33A4F8FA3041F23423AD
:104FB000A4F8FC304EF26D63A4F8FE304DF6EC63BD
:104FC000A4F800310523A4F802310B23A4F804311E
:104FD0004A464146384601F09FF82060BAF1000F7A
:104FE00001D0CAF80040BDE8F087002384F83430CF
:104FF000ABE700BFE866002038B5002407E004EB0B
:10500000840293000E481844FFF7A0FB0134062CDD
:10501000F5D90C4D2846FFF799FB0B4C2046FFF7BE
:1050200095FB0A48FFF792FB0948FFF78FFB0948F9
:10503000FFF78CFB084B1D60084B1C6038BD00BFA0
:105040000C290020F8280020E4280020C82800208F
:10505000B42800209C280020E0280020DC28002024
:1050600010B5044601F086F8224A13680133136034
:10507000214B1B685BB1214B1B686BB91E4B1B6836
:10508000DA6AE36A9A4207D81B4B1C6004E01A4BA9
:105090001C601368012B29D0194A1368013313606F
:1050A0006364E06A01238340164A11680B4313606E
:1050B00000EB8000211D144B03EB8000FFF754FB35
:1050C00001F07AF80D4B1B687BB10B4B1B68DA6A59
:1050D000E36A9A4209D24FF0E0234FF08052C3F8BE
:1050E000042DBFF34F8FBFF36F8F10BDFFF784FF09
:1050F000D2E700BF98280020982900208C280020A3
:105100007C280020902800200C29002010B504469F
:10511000583002F08BFB94F87D3163B1012B11D034
:10512000022B0ED04FF0500383F31188BFF36F8F23
:10513000BFF34F8FFEE7206B00F072FF204600F0B8
:105140006FFF10BD204600F06BFFFAE70F4B1B68A6
:10515000D3B110B501F00EF80D4BDB68DC68201DF3
:10516000FFF726FB0B4A1368013B1360074A1368DD
:10517000013B136001F020F82046FFF7C7FF034B07
:105180001B68002BE6D110BD704700BFB02800207F
:10519000B42800209828002008B5FFF7D7FF074B58
:1051A0001B68012BF9D94FF0E0234FF08052C3F870
:1051B000042DBFF34F8FBFF36F8FEEE70C29002054
:1051C00070B504460D461D4B1E681D4B1868043013
:1051D000FFF7EEFA48B91A4B1B68DB6A01229A40C6
:1051E00018490B6823EA02030B60B4F1FF3F0DD0AE
:1051F0003444134B1B685C60A64210D9124B1868EC
:105200000F4B19680431FFF7BAFA70BD002DEFD0CB
:105210000B4B196804310D48FFF7A6FAF5E70C4B64
:105220001868074B19680431FFF7A9FA094B1B6886
:10523000A342EAD9074B1C60E7E700BF942800208F
:105240009829002090280020DC2800209C2800209D
:10525000E02800207828002030B587B00B9C8CB166
:105260000C9DC5B14FF4C0750495049DB5F5C07F84
:105270001AD04FF0500383F31188BFF36F8FBFF341
:105280004F8FFEE74FF0500383F31188BFF36F8F0A
:10529000BFF34F8FFEE74FF0500383F31188BFF346
:1052A0006F8FBFF34F8FFEE7049D0C9D2C6302248C
:1052B00085F87D4100240394029505AC01940A9C75
:1052C0000094FFF717FE0C98FFF7CAFE059807B089
:1052D00030BD2DE9F04385B00746884614461E468A
:1052E000900000F01BFE10B381464FF4C07000F038
:1052F00015FE0546A8B1C0F83090002380F87D3136
:10530000039302900D9B01930C9B0093334622461E
:1053100041463846FFF7EEFD2846FFF7A1FE012083
:1053200007E0484600F07CFE4FF0FF3001E04FF010
:10533000FF3005B0BDE8F08310B588B000240594B7
:10534000069407AA06A905A8FBF7CEF8059B0293C9
:10535000069B019300942346079A1A491A48FFF7BF
:105360007BFF1A4B1860E8B100F07AFB01281AD1D4
:105370004FF0500383F31188BFF36F8FBFF34F8F4C
:10538000134B1B685833134A1360134B4FF0FF3213
:105390001A60124B01221A60114B00221A6000F0B1
:1053A00083FF03E00020B0F1FF3F01D008B010BD43
:1053B0004FF0500383F31188BFF36F8FBFF34F8F0C
:1053C000FEE700BF4C8500089951000874280020B2
:1053D00098290020FC000020782800208C2800203C
:1053E00094280020024A136801331360704700BFFD
:1053F00070280020014B1868704700BF94280020D7
:10540000F8B53A4B1B68002B69D1394B1D68013543
:105410001D60C5B9374B1B681B6843B14FF0500383
:1054200083F31188BFF36F8FBFF34F8FFEE7314ACD
:105430001168314B186810601960304A13680133E5
:105440001360FFF741FD2E4B1B68AB423DD900278F
:105450002C4B1B68DB6A03EB83039A002A4B9B5897
:10546000012B00D90127294B1B68002B3CD00127B9
:105470003AE001271F4B1B681B6843B31D4B1B6899
:10548000DB68DC6863689D4226D3261D3046FFF743
:105490008FF9A36A1BB104F11800FFF789F9E36AD9
:1054A00001229A401A49086802430A6003EB830309
:1054B0009A00314614481044FFF756F9E26A114B3E
:1054C0001B68DB6A9A42D4D2D4E70027D2E70C4BA0
:1054D0004FF0FF321A60BBE7094A1360B8E70D4A84
:1054E00013680133136000273846F8BD7028002088
:1054F00094280020E0280020DC28002080280020BC
:1055000078280020982900200C29002084280020D9
:10551000902800208828002038B5354B1B6843B9F7
:105520004FF0500383F31188BFF36F8FBFF34F8F9A
:10553000FEE700F01FFE2E4B1A68013A1A601B6846
:10554000002B4FD12B4B1B680BB900244BE00024E0
:10555000294B1B681BB3284BDB68DC6804F118007F
:10556000FFF726F9251D2846FFF722F9E06A0123F7
:105570008340224A11680B43136000EB80002946E8
:105580001F4B03EB8000FFF7EFF8E26A1D4B1B682F
:10559000DB6A9A42DCD31C4B01221A60D8E70CB1BB
:1055A000FFF792FC194B1C6884B9174B1C68D4B1E7
:1055B0004FF0E0234FF08052C3F8042DBFF34F8F1C
:1055C000BFF36F8F01240EE0013C07D0FFF718FFF7
:1055D0000028F9D00C4B01221A60F5E70B4B002292
:1055E0001A60E2E7002400F0E7FD204638BD00BF66
:1055F0007028002098280020C8280020902800202B
:105600000C290020982900208428002088280020C8
:1056100010B5A8B10446104B1B6843B14FF05003BE
:1056200083F31188BFF36F8FBFF34F8FFEE7FFF750
:10563000D9FE00212046FFF7C3FDFFF76DFF48B9F3
:105640004FF0E0234FF08052C3F8042DBFF34F8F8B
:10565000BFF36F8F10BD00BF7028002008B5294B25
:105660001B681BB1284B01221A6008BD264B002283
:105670001A60264B1A6812681B681B6B9A4215D970
:10568000234B1B68B3FA83F3DBB2C3F11F0303EBB5
:1056900083018A001F498A587AB94FF0500383F377
:1056A0001188BFF36F8FBFF34F8FFEE7174B18685A
:1056B00019683431FAF716FFE2E7164803EB830165
:1056C0008A00024451684968516003EB830C4FEA39
:1056D0008C020832024491420DD003EB83039A00FE
:1056E0000C4B13445B68DA68084B1A601B6858332C
:1056F000094A1360B9E7486862469100054A0A44BE
:105700005060EAE7702800208428002098290020B3
:10571000902800200C290020FC00002058B110B572
:105720000C46094A11681831FFF729F80121204673
:10573000FFF746FD10BD4FF0500383F31188BFF310
:105740006F8FBFF34F8FFEE79829002038B570B1F7
:105750000D4614460A4A11681831FFF705F80CB1D6
:105760004FF0FF3521462846FFF72AFD38BD4FF0A0
:10577000500383F31188BFF36F8FBFF34F8FFEE7A2
:105780009829002038B5C368DC6824B304F11805F3
:105790002846FFF70DF8184B1B682BBB251D284624
:1057A000FFF706F8E06A01238340144A11680B43AF
:1057B000136000EB80002946114B03EB8000FEF7DD
:1057C000D3FFE26A0F4B1B68DB6A9A4211D90120B2
:1057D0000D4B186038BD4FF0500383F31188BFF3B1
:1057E0006F8FBFF34F8FFEE729460848FEF7BCFFD7
:1057F000E7E70020EEE700BF702800209028002097
:105800000C2900209829002084280020C828002086
:10581000034B1B680360034B1B684360704700BF6A
:105820008028002094280020F8B5C8B10C46054611
:10583000F9B100F09FFC1B4B19686B68C81A22680D
:10584000B2F1FF3F26D0184E36682F68B74201D01C
:105850008B4224D9824215D80023236001241AE008
:105860004FF0500383F31188BFF36F8FBFF34F8F57
:10587000FEE74FF0500383F31188BFF36F8FBFF340
:105880004F8FFEE75B1A134423602846FFF7C0FFE3
:10589000002400E0002400F08FFC2046F8BD012425
:1058A000F9E700BF9428002080280020014B012246
:1058B0001A60704784280020054B1B6833B1054BE4
:1058C0001B680BB100207047022070470120704711
:1058D0008C2800207028002000284BD038B50446C2
:1058E000264B1B68834208D04FF0500383F3118886
:1058F000BFF36F8FBFF34F8FFEE7036D43B94FF0D8
:10590000500383F31188BFF36F8FBFF34F8FFEE710
:10591000013B0365C16AC26C91422DD00BB10020DE
:1059200038BD051D2846FEF743FF68B9E36A03EB5F
:105930008302920012498A5832B901229A401149D1
:105940000B6823EA02030B60E06CE062C0F107031E
:10595000A361012404FA00F30A4A11680B4313609F
:1059600000EB80002946064B03EB8000FEF7FCFEAF
:105970002046D5E7002070470020D1E79829002075
:105980000C29002090280020064B1A6813682BB9B8
:105990000123036023B9D368186870470023F8E730
:1059A00000207047742A002008B5416000619142D0
:1059B0000CD8D21A83699A4201D3012008BD011D77
:1059C000094B1868FEF7DBFE0020F7E79A4201D288
:1059D000994206D2011D054B1868FEF7D0FE002043
:1059E000ECE70120EAE700BF702A0020742A0020BB
:1059F00030B583B000F0BEFB114B1B681BB100F04B
:105A0000DBFB03B030BD0F4D2846FEF79FFE0E4C6A
:105A10002046FEF79BFE0D4B1D600D4B1C600023C6
:105A200000930C4B0C4A0C210A20FEF7C7FF044BD5
:105A300018600028E3D00949FFF708FADFE700BF44
:105A40006C2A00208C2A0020782A0020742A00204A
:105A5000702A00209C290020EC2900205485000891
:105A600010B588B0FFF7C4FF124B1B68CBB1002400
:105A70000594069407AA06A905A8FAF741FD059B17
:105A80000293069B0193022300932346079A0A4937
:105A90000A48FFF7E1FB0A4B186010B1012008B07B
:105AA00010BD4FF0500383F31188BFF36F8FBFF326
:105AB0004F8FFEE76C2A00205C850008B55D00086A
:105AC000682A0020B8B19C4603461848006858B3BD
:105AD00000B585B001910292039305291CDCFFF704
