:020000040800F2
:1000000000000220B5940008D5200008D720000881
:10001000D9200008DB200008DD20000800000000D7
:10002000000000000000000000000000E17900086E
:10003000DF20000800000000817A0008E57A00084F
:100040000595000805950008059500080595000828
:100050000595000805950008059500080595000818
:100060000595000805950008059500080595000808
:1000700005950008059500080595000805950008F8
:10008000059500080595000805950008000000008A
:1000900000000000000000000000000005950008BE
:1000A00005950008E1200008E520000805950008F6
:1000B00005950008059500080595000805950008B8
:1000C00005950008059500080595000805950008A8
:1000D000059500080595000805950008000000003A
:1000E000059500080595000805950008000000002A
:1000F000000000000000000000000000059500085E
:100100000000000005950008059500080595000809
:1001100000000000000000000000000000000000DF
:100120000595000805950008059500080595000847
:10013000059500080000000000000000000000001D
:10014000000000000000000000000000F520000892
:100150000595000805950008059500080595000817
:10016000059500080595000800000000000000004B
:10017000000000000000000000000000000000007F
:1001800000000000059500080000000000000000CD
:08019000059500080595000823
:1001A00010B5054C237833B9044B13B10448AFF3B1
:1001B00000800123237010BDE00200200000000039
:1001C00090D3000808B5034B1BB103490348AFF3B4
:1001D000008008BD00000000E402002090D3000869
:1001E000034613F8012B002AFBD1181A0138704777
:1001F00001F0FF01102A2BDB10F0070F08D010F8D8
:10020000013B013A8B422DD010F0070F42B3F6D1DB
:10021000F0B441EA012141EA014122F007047FF0F4
:1002200000070023F0E80256083C85EA010586EA4B
:10023000010685FA47F5A3FA87F586FA47F6A5FA87
:1002400087F68EB9EED1F0BC01F0FF0102F0070293
:1002500032B110F8013B013A83EA010313B1F8D13E
:100260000020704701387047002D06BF354603381F
:10027000073815F0010F07D1013015F4807F02BF58
:10028000013015F4C03F0130F0BC0138704700BFA9
:1002900081F0004102E000BF83F0004330B54FEA37
:1002A00041044FEA430594EA050F08BF90EA020FA4
:1002B0001FBF54EA000C55EA020C7FEA645C7FEA37
:1002C000655C00F0E2804FEA5454D4EB5555B8BF5A
:1002D0006D420CDD2C4480EA020281EA030382EACB
:1002E000000083EA010180EA020281EA0303362D5D
:1002F00088BF30BD11F0004F4FEA01314FF4801C30
:100300004CEA113102D0404261EB410113F0004F41
:100310004FEA03334CEA133302D0524263EB4303F8
:1003200094EA050F00F0A780A4F10104D5F1200E96
:100330000DDB02FA0EFC22FA05F2801841F10001F1
:1003400003FA0EF2801843FA05F359410EE0A5F1C5
:1003500020050EF1200E012A03FA0EFC28BF4CF0F6
:10036000020C43FA05F3C01851EBE37101F00045AC
:1003700007D54FF0000EDCF1000C7EEB00006EEBB9
:100380000101B1F5801F1BD3B1F5001F0CD3490843
:100390005FEA30004FEA3C0C04F101044FEA44529A
:1003A00012F5800F80F09A80BCF1004F08BF5FEA21
:1003B000500C50F1000041EB045141EA050130BD01
:1003C0005FEA4C0C404141EB0101013C28BFB1F513
:1003D000801FE9D291F0000F04BF01460020B1FA5E
:1003E00081F308BF2033A3F10B03B3F120020CDA31
:1003F0000C3208DD02F1140CC2F10C0201FA0CF00F
:1004000021FA02F10CE002F11402D8BFC2F1200C73
:1004100001FA02F120FA0CFCDCBF41EA0C01904029
:10042000E41AA2BF01EB0451294330BD6FEA040472
:100430001F3C1CDA0C340EDC04F11404C4F120025D
:1004400020FA04F001FA02F340EA030021FA04F36F
:1004500045EA030130BDC4F10C04C4F1200220FAC6
:1004600002F001FA04F340EA0300294630BD21FA04
:1004700004F0294630BD94F0000F83F4801306BFCA
:1004800081F480110134013D4EE77FEA645C18BFBE
:100490007FEA655C29D094EA050F08BF90EA020F55
:1004A00005D054EA000C04BF1946104630BD91EA4D
:1004B000030F1EBF0021002030BD5FEA545C05D150
:1004C0004000494128BF41F0004130BD14F580048F
:1004D0003CBF01F5801130BD01F0004545F0FE4103
:1004E00041F470014FF0000030BD7FEA645C1ABF38
:1004F000194610467FEA655C1CBF0B46024650EA6F
:10050000013406BF52EA033591EA030F41F400219A
:1005100030BD00BF90F0000F04BF0021704730B520
:100520004FF4806404F132044FF000054FF00001F5
:1005300050E700BF90F0000F04BF0021704730B5B6
:100540004FF4806404F1320410F0004548BF40428B
:100550004FF000013EE700BF42004FEAE2014FEAE0
:1005600031014FEA02701FBF12F07F4393F07F4FBB
:1005700081F06051704732F07F4208BF704793F0BE
:100580007F4F04BF41F40021704730B54FF46074D1
:1005900001F0004521F000411CE700BF50EA0102D4
:1005A00008BF704730B54FF000050AE050EA01027D
:1005B00008BF704730B511F0004502D5404261EBED
:1005C00041014FF4806404F132045FEA915C3FF42E
:1005D000D8AE4FF003025FEADC0C18BF03325FEACB
:1005E000DC0C18BF033202EBDC02C2F1200300FA7C
:1005F00003FC20FA02F001FA03FE40EA0E0021FAA1
:1006000002F11444BDE600BF70B54FF0FF0C4CF48E
:10061000E06C1CEA11541DBF1CEA135594EA0C0F40
:1006200095EA0C0F00F0DEF82C4481EA030621EA7B
:100630004C5123EA4C5350EA013518BF52EA0335B6
:1006400041F4801143F4801338D0A0FB02CE4FF068
:100650000005E1FB02E506F00042E0FB03E54FF098
:100660000006E1FB03569CF0000F18BF4EF0010E90
:10067000A4F1FF04B6F5007F64F5407404D25FEA8C
:100680004E0E6D4146EB060642EAC62141EA55513F
:100690004FEAC52040EA5E504FEACE2EB4F1FD0C81
:1006A00088BFBCF5E06F1ED8BEF1004F08BF5FEAFF
:1006B000500E50F1000041EB045170BD06F00046B1
:1006C00046EA010140EA020081EA0301B4EB5C045E
:1006D000C2BFD4EB0C0541EA045170BD41F4801156
:1006E0004FF0000E013C00F3AB8014F1360FDEBF7B
:1006F000002001F0004170BDC4F10004203C35DA57
:100700000C341BDC04F11404C4F1200500FA05F3D9
:1007100020FA04F001FA05F240EA020001F000427A
:1007200021F0004110EBD37021FA04F642EB0601F0
:100730005EEA430E08BF20EAD37070BDC4F10C041A
:10074000C4F1200500FA04F320FA05F001FA04F2DE
:1007500040EA020001F0004110EBD37041F10001CA
:100760005EEA430E08BF20EAD37070BDC4F12005D5
:1007700000FA05F24EEA020E20FA04F301FA05F23D
:1007800043EA020321FA04F001F0004121FA04F2E5
:1007900020EA020000EBD3705EEA430E08BF20EAB5
:1007A000D37070BD94F0000F0FD101F000464000EF
:1007B00041EB010111F4801F08BF013CF7D041EA71
:1007C000060195F0000F18BF704703F00046520075
:1007D00043EB030313F4801F08BF013DF7D043EA46
:1007E0000603704794EA0C0F0CEA135518BF95EAFC
:1007F0000C0F0CD050EA410618BF52EA4306D1D183
:1008000081EA030101F000414FF0000070BD50EAA1
:10081000410606BF1046194652EA430619D094EA2B
:100820000C0F02D150EA013613D195EA0C0F05D115
:1008300052EA03361CBF104619460AD181EA030169
:1008400001F0004141F0FE4141F470014FF0000021
:1008500070BD41F0FE4141F4780170BD70B54FF0BC
:10086000FF0C4CF4E06C1CEA11541DBF1CEA13553C
:1008700094EA0C0F95EA0C0F00F0A7F8A4EB05041E
:1008800081EA030E52EA03354FEA013100F0888015
:100890004FEA03334FF0805545EA131343EA1263DE
:1008A0004FEA022245EA111545EA10654FEA002693
:1008B0000EF000419D4208BF964244F1FD0404F54C
:1008C000407402D25B084FEA3202B61A65EB0305A8
:1008D0005B084FEA32024FF480104FF4002CB6EB65
:1008E000020E75EB030E22BFB61A754640EA0C00E5
:1008F0005B084FEA3202B6EB020E75EB030E22BF25
:10090000B61A754640EA5C005B084FEA3202B6EB65
:10091000020E75EB030E22BFB61A754640EA9C0024
:100920005B084FEA3202B6EB020E75EB030E22BFF4
:10093000B61A754640EADC0055EA060E18D04FEAB2
:10094000051545EA16754FEA06164FEAC30343EA52
:1009500052734FEAC2025FEA1C1CC0D111F4801F1F
:100960000BD141EA00014FF000004FF0004CB6E718
:1009700011F4801F04BF01430020B4F1FD0C88BFB7
:10098000BCF5E06F3FF6AFAEB5EB030C04BFB6EBC2
:10099000020C5FEA500C50F1000041EB045170BDB5
:1009A0000EF0004E4EEA113114EB5C04C2BFD4EBE2
:1009B0000C0541EA045170BD41F480114FF0000E66
:1009C000013C90E645EA060E8DE60CEA135594EAE2
:1009D0000C0F08BF95EA0C0F3FF43BAF94EA0C0FE5
:1009E0000AD150EA01347FF434AF95EA0C0F7FF45A
:1009F00025AF104619462CE795EA0C0F06D152EAAE
:100A000003353FF4FDAE1046194622E750EA410691
:100A100018BF52EA43067FF4C5AE50EA41047FF4A2
:100A20000DAF52EA43057FF4EBAE12E74FF0FF3C07
:100A300006E000BF4FF0010C02E000BF4FF0010CD8
:100A40004DF804CD4FEA410C7FEA6C5C4FEA430C51
:100A500018BF7FEA6C5C1BD001B050EA410C0CBFA0
:100A600052EA430C91EA030F02BF90EA020F002002
:100A7000704710F1000F91EA030F58BF994208BF69
:100A800090422CBFD8176FEAE37040F00100704726
:100A90004FEA410C7FEA6C5C02D150EA013C07D17D
:100AA0004FEA430C7FEA6C5CD6D152EA033CD3D0C8
:100AB0005DF8040B704700BF8446104662468C46C2
:100AC0001946634600E000BF01B5FFF7B7FF0028F5
:100AD00048BF10F1000F01BD4DF808EDFFF7F4FF1E
:100AE0000CBF012000205DF808FB00BF4DF808EDA9
:100AF000FFF7EAFF34BF012000205DF808FB00BFCC
:100B00004DF808EDFFF7E0FF94BF012000205DF8ED
:100B100008FB00BF4DF808EDFFF7CEFF94BF0120A2
:100B200000205DF808FB00BF4DF808EDFFF7C4FF9B
:100B300034BF012000205DF808FB00BF4FEA410CE4
:100B40007FEA6C5C02D150EA013C0AD14FEA430CC7
:100B50007FEA6C5C02D152EA033C02D14FF0000004
:100B600070474FF0010070474FEA410212F5001242
:100B700015D211D56FF47873B3EB625212D94FEAE4
:100B8000C12343F0004343EA505311F0004F23FACE
:100B900002F018BF404270474FF00000704750EA23
:100BA000013005D111F0004008BF6FF000407047E0
:100BB0004FF00000704700BF4FEA4102B2F1E0433E
:100BC00024BFB3F5001CDCF1FE5C0DD901F0004C34
:100BD0004FEAC0024CEA5070B2F1004F40EB830084
:100BE00008BF20F00100704711F0804F21D113F1B0
:100BF0003872BCBF01F00040704741F480114FEAE9
:100C00005252C2F11802C2F1200C10FA0CF320FA71
:100C100002F018BF40F001004FEAC1234FEAD3238E
:100C200003FA0CFC40EA0C0023FA02F34FEA4303F8
:100C3000CCE77FEA625307D150EA01331EBF4FF081
:100C4000FE4040F44000704701F0004040F0FE409C
:100C500040F40000704700BF53B94AB9002908BFEB
:100C600000281CBF4FF0FF314FF0FF3000F074B987
:100C7000ADF1080C6DE904CE00F006F8DDF804E0F3
:100C8000DDE9022304B070472DE9F047089D0446D2
:100C90008E46002B4DD18A42944669D9B2FA82F22F
:100CA00052B101FA02F3C2F1200120FA01F10CFA6B
:100CB00002FC41EA030E94404FEA1C48210CBEFBA3
:100CC000F8F61FFA8CF708FB16E341EA034306FB2C
:100CD00007F199420AD91CEB030306F1FF3080F0BB
:100CE0001F81994240F21C81023E63445B1AA4B208
:100CF000B3FBF8F008FB103344EA034400FB07F7AA
:100D0000A7420AD91CEB040400F1FF3380F00A81EA
:100D1000A74240F207816444023840EA0640E41BDF
:100D200000261DB1D4400023C5E900433146BDE88B
:100D3000F0878B4209D9002D00F0EF800026C5E92D
:100D4000000130463146BDE8F087B3FA83F6002E45
:100D50004AD18B4202D3824200F2F980841A61EBBD
:100D6000030301209E46002DE0D0C5E9004EDDE7DB
:100D700002B9FFDEB2FA82F2002A40F09280A1EBC3
:100D80000C014FEA1C471FFA8CFE0126200CB1FB18
:100D9000F7F307FB131140EA01410EFB03F0884211
:100DA00008D91CEB010103F1FF3802D2884200F29E
:100DB000CB804346091AA4B2B1FBF7F007FB101130
:100DC00044EA01440EFB00FEA64508D91CEB0404CE
:100DD00000F1FF3102D2A64500F2BB800846A4EB29
:100DE0000E0440EA03409CE7C6F12007B34022FA14
:100DF00007FC4CEA030C20FA07F401FA06F31C4343
:100E0000F9404FEA1C4900FA06F3B1FBF9F8200C4F
:100E10001FFA8CFE09FB181140EA014108FB0EF095
:100E2000884202FA06F20BD91CEB010108F1FF3AE5
:100E300080F08880884240F28580A8F102086144F1
:100E4000091AA4B2B1FBF9F009FB101144EA0141FF
:100E500000FB0EFE8E4508D91CEB010100F1FF34AA
:100E60006CD28E456AD90238614440EA0840A0FB42
:100E70000294A1EB0E01A142C846A64656D353D018
:100E80005DB1B3EB080261EB0E0101FA07F722FA3C
:100E900006F3F1401F43C5E9007100263146BDE865
:100EA000F087C2F12003D8400CFA02FC21FA03F3C8
:100EB000914001434FEA1C471FFA8CFEB3FBF7F049
:100EC00007FB10360B0C43EA064300FB0EF69E426E
:100ED00004FA02F408D91CEB030300F1FF382FD207
:100EE0009E422DD9023863449B1B89B2B3FBF7F6AF
:100EF00007FB163341EA034106FB0EF38B4208D988
:100F00001CEB010106F1FF3816D28B4214D9023EC8
:100F10006144C91A46EA004638E72E46284605E7E6
:100F20000646E3E61846F8E64B45A9D2B9EB0208B7
:100F300064EB0C0E0138A3E74646EAE7204694E747
:100F40004046D1E7D0467BE7023B614432E730467A
:100F500009E76444023842E7704700BF08B50268F9
:100F6000034B9A4200D008BD03F034FCFBE700BFFE
:100F70000048014072B6FEE700B595B0302200216E
:100F800008A808F0F9FA0023039304930593069345
:100F9000079301931F4A116C41F080511164126C48
:100FA00002F080520192019A02931B4B1A6842F49C
:100FB00040421A601B6803F440430293029B0123E2
:100FC00008934FF48033099302230E934FF4800269
:100FD0000F9219221092C02211921293042313939C
:100FE00008A802F05DFF88B90F230393022304933E
:100FF000002305934FF4805206920793032103A820
:1010000003F09CF920B915B05DF804FBFFF7B2FFBF
:10101000FFF7B0FF003802400070004008B503F051
:10102000BFFBFFF7A9FF00F015F800F0CBFC00F0C4
:10103000E7FC00F0B9FF00F0D1FF00F071FD00F017
:10104000C7FD00F09DFE00F013FF00F0A1FC06F0CC
:101050000CFBFEE7F0B589B00024039404940594DA
:10106000069407940094204B1A6B42F080021A6396
:101070001A6B02F080020092009A01941A6B42F0FF
:1010800001021A631A6B02F001020192019A0294A2
:101090001A6B42F002021A631B6B03F00203029305
:1010A000029B124F22461021384603F01BFB104DC5
:1010B00022464FF46041284603F014FB10230393AB
:1010C000012604960594069403A9384603F02AFAEB
:1010D0004FF46043039304960594069403A92846AD
:1010E00003F020FA09B0F0BD0038024000000240D1
:1010F000000402402DE9F04FC9B08246D0F808B094
:10110000C36801930369029343690393836904935A
:10111000C3690593036A0693436A0793002205E0B7
:1011200051F8223008A840F8223001320F2AF7DDAA
:10113000102222E0931E08A951F823104FEAF14330
:1011400083EA714383EA9123D11F08A850F8211044
:101150000B44A2F10F0150F821004FEAB04181EA9F
:10116000F01181EAD0010B44A2F1100108A850F857
:1011700021100B4440F8223001323F2ADADDDDF83D
:101180001CE0069E059F049ADDF80C80029C019DE0
:10119000DC4600202FE04FEAF22383EAB21383EA11
:1011A0007263734402EA070126EA020E81EA0E0125
:1011B0000B44234951F820100B4408A951F8201082
:1011C0000B444FEA7C3181EABC0181EABC5185EADB
:1011D000040E0EEA0C0E05EA04098EEA090E7144AB
:1011E0000130B6463E46174608EB0302A0462C46A1
:1011F000654603EB010C3F28CDDD0CEB0B03CAF871
:101200000830019B1D44CAF80C50029B1C44CAF8CC
:101210001040039B4344CAF81430049B1A44CAF894
:101220001820059B1F44CAF81C70069B1E44CAF870
:101230002060079B7344CAF8243049B0BDE8F08FA2
:10124000CCD3000880B5CEB000F0CAFF44E3002143
:1012500000283BD0AE4BFE229A700624002844D0D2
:101260000923AB4AD3700123D371C823137200231F
:10127000137111B1134601221A71A54B00225A7144
:10128000A44DAA799A710132AA719A788DF80C202E
:10129000DB788DF80D3050B39D4B9A798DF80E2088
:1012A000DA798DF80F201A7A8DF810209B68C3F335
:1012B00017238DF81130621E92B24FF6FF730DF1B5
:1012C0000D0043E00021C3E70121C1E7904BFD225F
:1012D0009A700A24C2E7013BDBB2012BC1D98C4AC8
:1012E0001A44D27A002AF6D0BBE70923F5E7884BE7
:1012F0001A798DF80E205A798DF80F209A798DF889
:101300001020DA798DF811201A7A8DF812209B6856
:10131000C3F317238DF813301A128DF814201B1401
:101320008DF81530C7E710F8012B5FFA83FE82EACB
:101330000E0282EA0212D2B21B0A43EA02231BB255
:1013400083EAC20383EA12139BB2624602F1FF3CB6
:101350001FFA8CFC002AE6D16D48C2780C3012E0EE
:1013600010F8012B5FFA83FE82EA0E0282EA021273
:10137000D2B21B0A83EA02231BB283EAC20383EAC6
:1013800012139BB2624602F1FF3C1FFA8CFC002A4A
:10139000E6D1DAB282F0320282EA0212D2B21B0A3B
:1013A00083EA02231BB283EAC20383EA1213584A78
:1013B000D07802F10C052B54D0780130C3F3072606
:1013C0002E541380F9B9524BDC789A78FE2A40F0FB
:1013D0004382514D2A706C701E469B79AB70F37935
:1013E000EB70337A2B71B368C3F317236B7122460A
:1013F00006F10C01A81D08F0B1F8F0780630284479
:101400000526002755E2434B1F69154692F80380D5
:101410000C354544002FD6D03B7813F0010FD2D0C5
:101420007A783B4B83F81621D7E90201CDE9000118
:101430000098C3F81701BDF80420A3F81B21BB686E
:10144000FA68013342F10002BB60FA6000232B937B
:101450002C93324A2D92324A2E92324A2F92324A9D
:101460003092324A3192324A3292324A339202F107
:101470007452A2F52302A2F69242349210374FF42E
:1014800080722B929A4620260DE04A46394635ABAB
:1014900003EB0A0008F062F8CA444F44A6EB0906C1
:1014A000BAF1400F06D02EB3CAF14009B145ECD9CC
:1014B000B146EAE700230F2B15DC35A800EB8301CA
:1014C0000DF1640C0CEB830291F803E00CF823E0BF
:1014D00091F802C082F801C04978917010F8231089
:1014E000D1700133E7E719A92BA8FFF703FE4FF0EE
:1014F000000AD8E727462B9B03EBC4042B94A34296
:1015000002D92C9A01322C92C3F3C50A03AC21E014
:101510007C0400201C0400200003002067E6096A08
:1015200085AE67BB72F36E3C3AF54FA57F520E5104
:101530008C68059BABD9831F4A46214635AB03EB2C
:101540000A0008F00BF8CA444C44A7EB0907BAF1AB
:10155000400F06D027B3CAF14009B945ECD9B946C6
:10156000EAE700230F2B15DC35A800EB83010DF112
:10157000640C0CEB830291F803E00CF823E091F883
:1015800002C082F801C04978917010F82310D17020
:101590000133E7E719A92BA8FFF7ACFDB246D9E75D
:1015A00046462B9B03EBC8022B92934202D92C9AFE
:1015B00001322C92C3F3C509A34C0DE042462146EB
:1015C00035AB03EB090007F0C9FFC1444444A6EB67
:1015D0000806B9F1400F23D026B3C9F14008B04541
:1015E000ECD9B046EAE735A800EB83010DF1640CB5
:1015F0000CEB830291F803E00CF823E091F802C0B1
:1016000082F801C04978917010F82310D17001332D
:101610000F2BE8DD19A92BA8FFF76CFDB946DBE716
:101620000023F5E72B9B03F110022B92934202D982
:101630002C9A01322C92C3F3C50802240CE03A46DE
:10164000294635AB03EB080007F088FFB8443D445A
:10165000E41BB8F1400F20D00CB3C8F14007A742FB
:10166000EDD92746EBE735A800EB830119AF07EB6F
:10167000830291F803C007F823C08F785770497828
:10168000917010F82310D17001330F2BEBDD19A9E5
:101690002BA8FFF72FFDB046DEE70023F5E72B9BD5
:1016A00003F138022B92934202D92C9A01322C92E8
:1016B000C3F3C508654F07250CE03246394635AB04
:1016C00003EB080007F04AFFB0443744AD1BB8F104
:1016D000400F06D00DB3C8F14006AE42EDD92E46FC
:1016E000EBE700230F2B12DC35A800EB830119AECA
:1016F00006EB830291F803C006F823C08E7856707B
:101700004978917010F82310D1700133EAE719A9D4
:101710002BA8FFF7EFFCA046DCE72B9BDE08C6F109
:10172000770606F03F0680238DF8643047220021BB
:101730000DF1650007F020FF2B9B06F5A0726A44AF
:1017400002F8D43C190A06F23F126A4402F8D41C8B
:10175000190C06F59F726A4402F8D41C190E06F2A1
:101760003D126A4402F8D41C2C9A06F59E71694415
:1017700001F8D42C100A06F23B11694401F8D40C8C
:10178000100C06F59D71694401F8D40C120E06F296
:1017900039110DEB010404F8D42C093603EBC60211
:1017A0002B92934202D92C9A01322C92C3F3C50892
:1017B00019AF0CE02246394635AB03EB080007F0C1
:1017C000CDFEA0442744361BB8F1400F06D00EB31F
:1017D000C8F14004B442EDD93446EBE700230F2BA7
:1017E00012DC35A800EB830109AC04EB830291F80D
:1017F00003C004F823C08C7854704978917010F8B5
:101800002310D1700133EAE709A92BA8FFF772FC76
:10181000A846DCE70E4B9DF8B72083F81D219DF804
:10182000B62083F81E219DF8B52083F81F219DF86E
:10183000B42083F820219DF8BB2083F821219DF856
:10184000BA2083F82221BEE58804002092050020FA
:101850007C040020013CE4B2012C04D93A4B23441F
:10186000DB7A002BF6D0394D2A706C70364E337906
:10187000AB707379EB70B3792B71F3796B71337A49
:10188000AB71B368C3F31723EB711A122A721B14DE
:101890006B72224606F10C0105F10A0007F05EFEAC
:1018A00004F10A002844317911F0010744D00926D7
:1018B0000D27254B1B8803701B0A4370002F3DD159
:1018C00031193944033189B2214B19801F4800F086
:1018D00073FD322005F003FF49A807F0CDFD45A8B0
:1018E00007F0B0FD06AB0024069402228DF81C2000
:1018F0008DF81D408DF81E408DF81F4003228DF895
:101900002020114E06F10C0593E8070003C52A704C
:101910007472B472F4720F4B187B10F002007FF4F3
:1019200096AC1B69002B3FF4CDAC1B7813F0010F74
:101930007FF4CAAC21468BE40926BAE73A46064949
:10194000023007F00BFEBBE77C0400200003002000
:10195000180400201C04002092050020704700009D
:10196000034B0360034B0B6080231360704700BF81
:10197000A0070020A0050020034B0360034B0B6071
:101980004FF480731360704728100020280C00204B
:1019900010B588B00DF1040C084C0FCCACE80F006A
:1019A00094E807008CE80700002101A805F062FE1A
:1019B000034B186007F012FD08B010BDA8D3000853
:1019C000FC02002008B50B480B4B03600B4B436037
:1019D00000238360C3604FF48042026143618361EE
:1019E000C361036203F0A6F900B908BDFFF7C2FAAC
:1019F000FBE700BFB014002000540040A0860100A7
:101A000008B50B480B4B03600B4B4360002383600E
:101A1000C3604FF48042026143618361C36103622A
:101A200003F088F900B908BDFFF7A4FAFBE700BF8F
:101A30000415002000580040A08601002DE9F04167
:101A40008AB00023059306930793089309930368CC
:101A50002F4A934205D02F4A934225D00AB0BDE8C1
:101A6000F081002501952C4C236B43F00203236386
:101A7000236B03F002030193019BC0230593122300
:101A80000693032308930423099305A9234802F02E
:101A900049FD0295236C43F400132364236C03F483
:101AA00000130293029BD9E7002503951A4C236B80
:101AB00043F002032363236B03F002030393039BAE
:101AC0004FF4806305934FF01208CDF81880032778
:101AD000089704230993114E05A9304602F022FD10
:101AE00008230593CDF818800795089709230993D3
:101AF00005A9304602F016FD0495236C43F48003DB
:101B00002364236C03F480030493049BA6E700BFC3
:101B100000540040005800400038024000040240D9
:101B200008B50D480D4B03604FF4827343600023EA
:101B30008360C360036143614FF400728261C361DB
:101B40000362436283620A23C36203F0FFFB00B9AE
:101B500008BDFFF70FFAFBE75815002000300140E1
:101B600000B589B00023039304930593069307936C
:101B70000268154B9A4202D009B05DF804FB0021BF
:101B8000019103F584335A6C42F480525A645A6CC2
:101B900002F480520192019A02911A6B42F0010202
:101BA0001A631B6B03F001030293029BE023039370
:101BB00002230493032306930523079303A90348F1
:101BC00002F0B0FCD8E700BF003001400000024046
:101BD00010B58EB0002309930A930B930C930D93C9
:101BE0000393049305930693079308935E4B5A6CF3
:101BF00042F001025A645A6C02F001020292029A07
:101C00001A6B42F001021A631B6B03F0010301938C
:101C1000019B4FF4807303930223049301230893E1
:101C200003A9524803F09EFE514BDA68C2F3022228
:101C3000C2F10703042B28BF04231946131D062BEA
:101C400040F28E80033A4FF0FF338B40DB4303F0CA
:101C50000F0393401B01DBB2464A82F819334FF061
:101C600000731360424BDA68C2F30222C2F1070329
:101C7000042B28BF04231946131D062B72D9033ADF
:101C80004FF0FF338B40DB4303F00F0393401B0106
:101C9000DBB2384A82F81A334FF0806313600023B6
:101CA000ADF824300A934FF6FF720B920C930D930C
:101CB000314C09A9204603F0EBFD236823F0800393
:101CC0002360A36823F4804323F00703A360A36881
:101CD00023F0700343F05003A360A36823F00703CD
:101CE00043F00403A360236A23F001032362234B20
:101CF0001A6822F0F0021A60226A22F00A022262B6
:101D0000E26822F04002E260E26822F48042E2608F
:101D10001A6822F0030242F001021A601A6822F0E7
:101D20000C021A601A6822F4407242F400721A60BF
:101D30001A6822F440621A601A6822F470421A602B
:101D4000236A23F0A00343F020032362636823F097
:101D500070036360A36823F08003A3600EB010BD1E
:101D6000002270E700228BE70038024000000240AA
:101D700000ED00E000E100E000000140180001403B
:101D8000F0B597B000241194129413941494159400
:101D90002022214609A807F0EFFB03940494059440
:101DA0000694079408942F4E336C43F00103336478
:101DB000336C03F001030293029B4FF0FF33139344
:101DC00011A94FF0804003F063FD4FF080452B6870
:101DD00023F080032B60AB6823F4804323F00703D8
:101DE000AB60AB6943F00803AB61602309930A94CD
:101DF0000B940C940D9409AA0121284603F094FD3C
:101E0000194F3B6823F004033B60AB6943F4006364
:101E1000AB6109AA1021284603F086FD3B6823F434
:101E200080633B606B6823F070036B60AB6823F0EA
:101E30008003AB60336B43F001033363336B03F018
:101E400001030193019B032303930223049305944D
:101E5000069407940123089303A9044803F082FD24
:101E600017B0F0BD003802401800004000000240EA
:101E70002DE9F04196B00024119412941394149417
:101E800015942022214609A807F076FB03940494B8
:101E900005940694079408943F4F3B6C43F002036B
:101EA0003B643B6C03F002030293029B4FF6FF730B
:101EB00013933A4D11A9284603F0EAFC2B6823F04E
:101EC00080032B60AB6823F4804323F00703AB60EF
:101ED000334E4FF08048D8F8183443F00803C8F860
:101EE0001834602309930A940B940C940D9409AA56
:101EF0000121284603F018FD336823F00403336002
:101F0000D8F8183443F40063C8F8183409AA10212B
:101F1000284603F009FD336823F480633360736857
:101F200043F00803736009AA4FF48071284603F058
:101F3000FBFC736823F004037360736843F400636D
:101F4000736009AA4FF48051284603F0EDFC7368D2
:101F500023F4806373606B6823F070036B60AB687D
:101F600023F08003AB603B6B43F002033B633B6BAE
:101F700003F002030193019B332303930223049391
:101F8000059406940794089303A9064803F0EAFC15
:101F900016B0BDE8F08100BF0038024000040040E8
:101FA000180400400004024008B50A480A4B0360C8
:101FB0004FF4E133436000238360C36003610C226C
:101FC00042618361C36103F01BFE00B908BDFEF7E7
:101FD000D1FFFBE7B01500200010014008B50A480A
:101FE0000A4B03604FF4E133436000238360C36016
:101FF00003610C2242618361C36103F001FE00B9F9
:1020000008BDFEF7B7FFFBE7F815002000440040CD
:1020100000B58BB0002305930693079308930993AB
:102020000368284A934205D0274A934226D00BB032
:102030005DF804FB00210191244B5A6C42F0100220
:102040005A645A6C02F010020192019A02911A6BC2
:1020500042F001021A631B6B03F001030293029B1F
:102060004FF4C063059302230693032308930723C9
:10207000099305A9164802F055FAD8E70021039103
:10208000124B1A6C42F400321A641A6C02F40032D9
:102090000392039A04911A6B42F001021A631B6BBC
:1020A00003F001030493049B0C230593022306937E
:1020B000032308930723099305A9054802F032FA80
:1020C000B5E700BF00100140004400400038024066
:1020D00000000240FEE7FEE7FEE7FEE7FEE770478E
:1020E0007047000008B5024803F0D0F908BD00BFF2
:1020F0004016002008B5024800F0F7FD08BD00BFFB
:10210000642B002000B583B0002200920D4B596C67
:1021100041F480415964596C01F480410091009967
:102120000192196C41F0805119641B6C03F08053CB
:102130000193019B0F216FF0010002F0EBFA03B055
:102140005DF804FB0038024030B589B00546002434
:1021500001941E4B5A6C42F480225A645B6C03F467
:1021600080230193019B02A903A802F0BDF902F0AC
:10217000ABF903461648A0FB03239B0C013B154813
:10218000154A026040F2E732C26043600461846035
:10219000846103F07DFA044610B1204609B030BDD9
:1021A0000C4803F033F904460028F6D11A2002F057
:1021B000E9FA0F2D01D90124EFE7002229461A2060
:1021C00002F0A8FA054B1D60E7E700BF00380240A7
:1021D00083DE1B43401600200048014068000020B9
:1021E00008B500220F49104805F060FD70B90F498D
:1021F0000D4805F072FD60B90D490B4806F068FD09
:1022000050B9094805F083FD48B908BDFEF7B2FE94
:10221000EDE7FEF7AFFEEFE7FEF7ACFEF1E7FEF706
:10222000A9FEF2E7000000208816002074000020BC
:102230005000002012230B80004870471C00002033
:1022400004230B8000487047300000200023934295
:102250001ED200B510E00CF1370C01F813C00001DC
:102260004FEA430C0CF1010C4FF0000E01F80CE0AA
:102270000133DBB2934209D24FEA107CB0F1204F18
:10228000E9D20CF1300C01F813C0E8E75DF804FB6B
:102290007047000038B50B4BD3F8100AD3F8144A36
:1022A000D3F8183AC01800D138BD074D0822A91C30
:1022B000FFF7CCFF042205F112012046FFF7C6FF0D
:1022C000F2E700BF0070FF1F3400002008B51A239A
:1022D0000B80FFF7DFFF014808BD00BF340000207E
:1022E00008B50A4628B90549054806F067FA0348C3
:1022F00008BD0249024806F061FAF8E764190020B7
:10230000CCD4000810B50A46034C2146034806F019
:1023100055FA204610BD00BF64190020D8D400082B
:1023200008B50A4628B90549054806F047FA0348A2
:1023300008BD0249024806F041FAF8E76419002096
:10234000ECD4000808B50A4628B90549054806F046
:1023500035FA034808BD0249024806F02FFAF8E7AB
:1023600064190020F8D4000800207047002070474E
:102370000020704710B50146044C204606F0C1FC11
:10238000204606F0E7FC002010BD00BF88160020A4
:1023900010B5064C00220649204606F0A4FC05496B
:1023A000204606F0AEFC002010BD00BF88160020BD
:1023B00064230020641B0020094BD3F8BC32D3F8FF
:1023C00014320BB10120704710B5054C0A46014686
:1023D000204606F088FC204606F09FFC10BD00BF9A
:1023E0008816002030B589B0002303930493059329
:1023F000069307930368B3F1A04F01D009B030BD35
:1024000000250195164C236B43F001032363236BD6
:1024100003F001030193019B4FF4C0530393022384
:102420000493032306930A23079303A90D4802F09C
:1024300079F8636B43F0800363630295636C43F444
:1024400080436364636C03F480430293029B2A46D7
:102450000521432002F05EF9432002F093F9CDE715
:10246000003802400000024008B500F29C41D0F85C
:10247000E00405F062FC08BD08B501EBC10300EB08
:102480008303D3F86022D0F8E00405F029FD08BDED
:1024900008B501EBC10300EB83031A6AD0F8E0042E
:1024A00005F084FD08BD08B5D0F8E00405F0C3FCD4
:1024B00008BD10B50446C379022B09D10121D4F817
:1024C000E00405F099FCD4F8E00405F062FC10BDCE
:1024D000FEF750FDF2E7000010B50446D0F8E00426
:1024E00005F08DFC2268D2F8003E43F00103C2F8EB
:1024F000003EE37A23B1034A136943F006031361F4
:1025000010BD00BF00ED00E008B5D0F8E00405F014
:1025100085FC08BD08B5D0F8E00405F0B4FC08BDA2
:1025200008B5D0F8E00405F097FC08BD08B5D0F870
:10253000E00405F0BFFC08BD08B5D0F8E00405F0E4
:10254000BBFC08BD02780AB10020704710B50346F5
:102550001548C0F8E034C3F8C8024FF0A043036048
:10256000042303710222C2710023837142728372B9
:10257000C37203738373C37300F0EEF880B90A4C1F
:102580008021204600F0B4FE40220021204600F0C9
:1025900089FE80220121204600F084FE002010BD2B
:1025A000FEF7E8FCEBE700BF642B0020D0F8C83250
:1025B00011F0800F08D101F07F0101EBC10103EBA5
:1025C000810191F85602704701F07F0101EBC101D2
:1025D00003EB8101887D704708B5D0F8C80200F090
:1025E000BFFA08BD004870474830002070470328F4
:1025F00005D8DFE800F0050402050120704703203C
:10260000704708B5D0F8C80200F027F9FFF7EFFFD0
:1026100008BD08B594461A466346D0F8C80200F0D3
:10262000FCF9FFF7E4FF08BD08B5D0F8C80200F0D8
:102630003AFAFFF7DCFF08BD08B5D0F8C80200F091
:10264000BDFAFFF7D4FF08BD08B5D0F8C80200F006
:10265000F8FAFFF7CCFF08BD08B5D0F8C80200F0C3
:10266000C9F9FFF7C4FF08BD08B5D0F8C80200F0EB
:1026700080FAFFF7BCFF08BD08B5D0F8C80200F02B
:102680004AFAFFF7B4FF08BD2DE9F04383B0D0F854
:10269000008001EBC10300EB83039A6A5B6A9A42F4
:1026A00054D807460C469B1A01EBC10200EB82028C
:1026B000D2699A4200D31A4602F103094FEA9909F6
:1026C00015E006F103094FEA9909BB7904EBC4054B
:1026D00007EB8505296A0093B3B2E2B2404601F0E8
:1026E00048F92B6A33442B62AB6A3344AB6208EB84
:1026F000441303F510639B699BB24B4512D304EB63
:10270000C40207EB8202916A536A99420AD24BB122
:102710005B1A04EBC40207EB8202D6699E42D0D357
:102720001E46CEE704EBC40007EB80077A6ABB6A5B
:102730009A420FD804F00F040123A340D8F834487C
:1027400024EA0304C8F83448002000E0012003B064
:10275000BDE8F0830020FAE730B583B000287AD0D6
:102760000446056890F89534C3B1032384F8953482
:10277000B5F1A04F17D0206800F0ACFE237C8DF897
:102780000030231D0ECB206800F0E3FD70B1022362
:1027900084F895340125284603B030BD80F8943480
:1027A000FFF720FEE1E70023A371E4E700212068A2
:1027B00001F004FB024608B9034617E0022384F83F
:1027C00095340125E7E703EBC30104EB8101012008
:1027D00048750B75CB8500200876C861086203EB4D
:1027E000C30104EB810148620133DBB220799842D6
:1027F000E9D816E002EBC20304EB8303002183F85F
:10280000551283F8542283F85812C3F85C12C3F8A7
:10281000601202EBC20304EB8303C3F864120132BB
:10282000D2B29042E6D8237C8DF80030231D0ECB27
:10283000206800F0A5FE054620B1022384F89534F7
:102840000125A8E700236374012384F895342068E8
:1028500001F071FA9FE701259DE7036890F8942441
:10286000012A1AD010B50446012280F89424DA68AF
:1028700012F0400F02D0427B012A09D0206800F0FC
:1028800023FE206801F049FA002084F8940410BD6A
:102890009A6B42F480329A63F0E70220704700009E
:1028A00070B504460D460068066C00EB411303F555
:1028B00030639A68A179012911D038498E4256D0E7
:1028C0003DB905EBC50304EB8303D3F86432002B59
:1028D0005ED0E9B22046FFF7CFFD002070BD12F0B8
:1028E000080F09D02E498E42F7D912F4004FF4D0C8
:1028F0004FF400429A60F0E712F0200F02D020223D
:102900009A60EAE712F0280FE7D125498E4206D9EE
:1029100012F4004F03D04FF400429A60DDE705EB5C
:10292000C50204EB8202D2F874121B69C3F31203CE
:10293000CB1AC2F868327DB905EBC50204EB8202FE
:10294000D2F864226AB105EBC50204EB8202D2F828
:1029500060120B44C2F86032E9B22046FFF78CFDEA
:10296000BBE704F29C42012101F06AFAF4E712F499
:10297000004F03D04FF400429A60AEE712F0200FF0
:1029800001D020229A60E9B22046FFF775FDA4E746
:1029900004F29C42002101F053FA9AE70A31544FA5
:1029A0000A30544F38B5044603681D6C03EB4113DD
:1029B000D3F8081B0E4A954207D903F5306311F48A
:1029C000004F02D04FF400429A602046FFF74CFDC2
:1029D000074B9D4202D9A379012B01D0002038BDBD
:1029E00004F29C420121206801F02AFAF6E700BFB8
:1029F0000A30544F90F89434012B0CD010B5044693
:102A0000012380F894344174006801F076F90020C5
:102A100084F8940410BD0220704738B505468C46F2
:102A200011F0800F2BD101F00F0E0EEBCE04A4009D
:102A300004F514740444211D0EEBCE0E00EB8E0E33
:102A400000208EF855020CF00F0C81F800C0C2F384
:102A50000A028A600B714A780AB1A1F81AC0022BE7
:102A60001CD095F89434012B1BD0012385F89434A5
:102A7000286800F060FE002085F8940438BD01F05D
:102A80000F0000EBC001890010312944043100EB34
:102A9000C00005EB800001244475D4E700234B718E
:102AA000DFE70220EAE710B504460A4611F0800F7E
:102AB00020D101F00F0000EBC0039B0003F514735D
:102AC0002344191D00EBC00004EB8000002380F8B4
:102AD000553202F00F020A7094F89434012B18D08A
:102AE000012384F89434206800F074FE002084F8F8
:102AF000940410BD01F00F0000EBC0039B001033E5
:102B00002344191D00EBC00004EB80000123437532
:102B1000DFE70220EDE710B5144601F00F0C0CEBD7
:102B2000CC01890001F51471014404310CEBCC0E89
:102B300000EB8E0ECEF86022CEF864320023CEF881
:102B400068328EF855328EF854C28279012A04D048
:102B5000006800F025FF002010BDCEF87042F7E7B6
:102B600001F00F0101EBC10100EB8101D1F8680216
:102B7000704710B5144601F00F0C0CEBCC01890026
:102B80001031014404310CEBCC0E00EB8E0ECEF86C
:102B90002020CEF824300023CEF8283001238EF8F0
:102BA00015308EF814C082799A4204D0006800F083
:102BB000F7FE002010BDCEF83040F7E738B501F041
:102BC0000F050279AA4238D304460B4611F0800F54
:102BD0001FD101EBC101890001F5147101440431D9
:102BE00003EBC30300EB8303002283F85522012388
:102BF0008B700D7094F89434012B20D0012384F84D
:102C00009434206801F01EF885B1002084F8940403
:102C100038BD05EBC501890010310144043105EBD5
:102C2000C50300EB830301225A75E0E704F29C42DE
:102C3000A179206801F004F9E7E70120E8E7022024
:102C4000E6E701F00F0302799A4230D310B504464B
:102C500011F0800F1ED103EBC301890001F514713F
:102C60000144043103EBC30200EB8202002082F82E
:102C7000550200228A700B7094F89434012B18D0FE
:102C8000012384F89434206801F009F8002084F8C6
:102C9000940410BD03EBC3018900103101440431D9
:102CA00003EBC30200EB820201205075E1E7012033
:102CB00070470220EDE708B511F0800F0CD101F04C
:102CC0000F0101EBC101890001F5147101440431C8
:102CD000006800F0EFFD08BD01F00F0101EBC1013C
:102CE0008900103101440431F2E72DE9F04F83B03F
:102CF00004460568284601F05DF810B103B0BDE850
:102D0000F08F0646206801F024F80028F6D005F57B
:102D10000067BB68C3F30D23C4F8D434206801F006
:102D200018F810F0020F04D02268536903F0020370
:102D30005361206801F00DF810F0100F13D02268D5
:102D4000936923F010039361D5F8208008F00F09F0
:102D5000C8F34343022B4BD0062B6FD022689369F4
:102D600043F010039361206800F0F3FF10F4002F8C
:102D700076D1206800F0EDFF10F4802F40F0E08065
:102D8000206800F0E6FF0028C0F26181206800F0B2
:102D9000E0FF10F4006F09D0BB6813F0010F40F0A2
:102DA0006E812268536903F400635361206800F068
:102DB000D0FF10F4805F40F06681206800F0C9FF0A
:102DC00010F4005F40F0B381206800F0C2FF10F003
:102DD000080F40F0C481206800F0BBFF10F0800FA6
:102DE00000F0D781AB6923F08003AB610126C0E11D
:102DF00047F6F07318EA030FB0D04FEA181B4FEAFA
:102E0000C903019309EBC90A04EB8A0AC8F30A1241
:102E1000DAF86012284600F0EBFECBF30A0BDAF882
:102E200060325B44CAF86032019B4B4404EB83037D
:102E3000D3F868325B44CAF868328FE7082204F29C
:102E40009C41284600F0D4FEC8F30A1809EBC902D9
:102E500004EB8202D2F868324344C2F868327DE75C
:102E6000206800F07AFF8046B14635E005EB491353
:102E70000122C3F8082B49462046FFF711FD3CE02C
:102E800005EB49130822C3F8082B49462046FFF7F3
:102E900089FD35E009EBC90304EB830393F857324E
:102EA000012B41D005EB49130222C3F8082B1AF07D
:102EB000200F04D005EB49132022C3F8082B1AF485
:102EC000005F05D005EB49134FF40052C3F8082BFF
:102ED00009F101094FEA5808B8F1000F3FF449AF72
:102EE00018F0010FF4D05FFA89FB5946206800F012
:102EF00044FF824610F0010FB8D11AF0080FBFD17D
:102F00001AF0100F04D005EB49131022C3F8082B58
:102F10001AF0020FCBD06B6913F0800FBAD07B6828
:102F200043F480637B60B5E709EBC90304EB8303DB
:102F3000002283F8572259462046FFF7EBFAB1E703
:102F4000206800F012FF8046B14625E05946204631
:102F5000FFF79EFA1AF0080F04D005EB4913082278
:102F6000C3F808291AF0100F04D005EB49131022FA
:102F7000C3F808291AF0400F04D005EB491340228A
:102F8000C3F808291AF0020F40D11AF0800F59D166
:102F900009F101094FEA5808B8F1000F3FF4F0AE0B
:102FA00018F0010FF4D05FFA89FB5946206800F051
:102FB000EDFE824610F0010FCCD009F00F03012185
:102FC00001FA03F27B6B23EA02037B6305EB4913EF
:102FD000C3F80819A3798B42B8D109EBC90304EBF4
:102FE0008303D9691A6A0A441A62B9F1000FADD194
:102FF00009EBC90304EB83035B6A002BA6D104F23F
:103000009C420121206800F01BFF9FE749462846AB
:1030100000F066FA09EBC90304EB8303DB7D012BA7
:1030200005D005EB49130222C3F80829ADE709EBE7
:10303000C90304EB83030022DA7559462046FFF7E3
:103040006FFAEEE749462046FFF71EFBA0E77B68D4
:1030500023F001037B6094F8CC34012B08D0204688
:10306000FFF752FA2268536903F0004353618DE67B
:10307000002184F8CC14204600F03EF9F2E7204607
:10308000FFF72AFA8DE67B6823F001037B601021AD
:10309000206800F025FA1AE005EB46134FF67F3161
:1030A000C3F80819D3F8002922F40012C3F8002944
:1030B000C3F8081BD3F8002B22F40012C3F8002B2E
:1030C000D3F8002B42F00062C3F8002B01362379BD
:1030D000B342E1D8FB6943F00113FB61E37BDBB151
:1030E000D7F8843043F00B03C7F884307B6C43F08F
:1030F0000B037B64D5F8003823F4FE63C5F8003871
:1031000004F29C42A179206800F09AFE226853697B
:1031100003F48053536150E67B6943F4005343F05A
:103120002B037B613B6943F00B033B61E2E72068C3
:1031300000F075FE206800F0EDFAE071266801F0FD
:10314000ADF90146E279304600F04CF92046FFF730
:10315000B0F92268536903F40053536134E6204602
:10316000FFF7A1F92268536903F00803536132E6BF
:1031700001362379B3420CD906EBC60304EB830373
:1031800093F85732012BF3D1F1B22046FFF793FDAC
:10319000EEE7206800F0DDFD10F4801F25D12068E7
:1031A00000F0D7FD10F4001F58D0012326E00136AF
:1031B0002379B3421BD905EB4613D3F8002906EB5C
:1031C000C60304EB83031B7E012BF0D1002AEEDA49
:1031D00006EBC60304EB83030122DA7566F07F0178
:1031E000C9B22046FFF767FDE1E70126E0E7226864
:1031F000536903F480135361D1E7013322799A4272
:1032000027D905EB4312D2F8001B03EBC30204EBF2
:10321000820292F85822012AEFD10029EDDAD4F87F
:10322000D42482EA114212F0010FE6D103EBC3026B
:1032300004EB8202012182F85712AA6942F080024F
:10324000AA616A6912F0800FD7D17B6843F40073DA
:103250007B602268536903F400135361206800F017
:1032600078FD10F0804F10D1206800F072FD10F052
:10327000040F3FF443AD23685D6815F0040F0DD1D2
:10328000226853682B43536038E52046FFF74EF918
:103290002268536903F080435361E5E72046FFF756
:1032A0004BF9EDE710B40468606A31B940EA0240B6
:1032B000A06200205DF8044B70478C46A36A00EBC7
:1032C0001340002308E003F1400104EB8101496849
:1032D00000EB11400133DBB20CF1FF318B42F2D332
:1032E00040EA02400CF13F0104EB81014860E0E755
:1032F0000368596200207047704782B00023019331
:10330000019B01330193019BB3F1706F1CD80369DA
:10331000002BF5DA0A23019302E0019B013B0193A4
:10332000019B002BF9D1036943F001030361019B69
:1033300001330193019BB3F1706F08D8036913F057
:10334000010FF4D1002000E0032002B070470320F9
:10335000FBE784B010B5044603A880E80E009DF892
:103360001130012B21D1A36B23F48033A363E368D5
:1033700023F4840323F04003E360E36823F4401361
:10338000E3609DF81830012B0AD02046FFF7B5FF07
:103390009DF80E30012B1CD0BDE8104004B07047E2
:1033A000E36843F48013E360EFE7E36843F040032E
:1033B000E3602046FFF7A1FF9DF8153023B9A36B0A
:1033C00043F48033A363E3E7A36B23F48033A36365
:1033D000DEE7A36843F00603A360A36843F020037D
:1033E000A360D9E7022A0AD00921C26822F47052E8
:1033F000C260C36843EA8123C36000207047234B47
:103400000B44234A93422FD9224B0B44224A934226
:103410002CD9A1F57403A3F51053204A934227D960
:10342000A1F18373A3F5E7431D4A934222D31D4BB9
:103430000B441D4A93421FD91C4B0B441C4A934218
:103440001CD31C4B0B441C4A934219D3A1F1B773F4
:10345000A3F55853194A934214D3194B0B44194AF4
:10346000934211D20721C0E70F21BEE70E21BCE72E
:103470000D21BAE70C21B8E70B21B6E70A21B4E722
:103480000921B2E70821B0E70621AEE7405327FF44
:10349000FF340C00401E1BFF3F420F007F4F120005
:1034A00020D6130060B6E5FE5FE3160000D3CEFE23
:1034B00040771B00C05BB3FEC0912100207538002F
:1034C000E05459FEE09C4100836843F001038360AF
:1034D00000207047836823F0010383600020704759
:1034E00082B000230193019B01330193019BB3F14F
:1034F000706F15D80369002BF5DA00230193890159
:1035000041F020010161019B01330193019BB3F163
:10351000706F08D8036913F0200FF4D1002000E089
:10352000032002B070470320FBE782B00023019321
:10353000019B01330193019BB3F1706F13D80369B1
:10354000002BF5DA0023019310230361019B013363
:103550000193019BB3F1706F08D8036913F0100F4A
:10356000F4D1002000E0032002B070470320FBE705
:10357000D0F800381943C0F8001800207047000048
:1035800084B0F8B5044607A880E80E00002306E0E2
:1035900003F1400204EB82020021516001330E2B43
:1035A000F6D99DF8266006BBD4F8043843F0020330
:1035B000C4F80438A36B43F40013A363A36B23F490
:1035C0000023A363A36B23F48023A3630023C4F825
:1035D000003E9DF82130012B15D19DF81F306BB9AD
:1035E00000212046FFF7C4FF11E0A36B23F4001372
:1035F000A363A36B43F40023A363E7E70121204601
:10360000FFF7B6FF03E003212046FFF7B1FF1021CB
:103610002046FFF765FF054600B101252046FFF76C
:1036200084FF00B1012504F5006C0023CCF81030B4
:10363000CCF81430CCF81C300AE0CBB94FF0006065
:10364000C2F8000900220A614FF67F328A60013316
:103650009DF81C10994210D904EB431202F5106139
:10366000D2F800090028E8DB0020C2F80009E9E7E9
:103670004FF09040C2F80009E4E700230AE0BBB134
:103680004FF09047C2F8007B002202614FF67F3274
:1036900082600133994210D904EB431202F5306085
:1036A000D2F8007B002FEADB0027C2F8007BEBE7B3
:1036B0004FF00067C2F8007BE6E7DCF8103023F437
:1036C0008073CCF810300023A3616FF080436361F6
:1036D0009DF81E301BB9A36943F01003A361A269D2
:1036E0000B4B1343A3619DF822301BB1A36943F038
:1036F0000803A361012E04D02846BDE8F84004B0B9
:103700007047A36943F0804343F00403A361F3E7E8
:1037100000383C80D0F8083813F0060307D0022B9D
:1037200007D0062B01D00F207047022070470020E1
:1037300070470220704710B591F800C04B78012BFC
:1037400023D000F5006ED0F81C380CF00F040122D5
:10375000A24043EA0243C0F81C3800EB4C10D0F8FA
:10376000003B13F4004F0ED1D0F8003B8A68C2F33F
:103770000A02097942EA8142134343F0805343F439
:103780000043C0F8003B002010BDD0F81C280CF00E
:103790000F0E03FA0EF39BB21343C0F81C3800EB74
:1037A0004C10D0F8003913F4004FECD1D0F80039A8
:1037B0008A68C2F30A02097942EA814242EA8C5CD1
:1037C00043EA0C0343F0805343F40043C0F800394C
:1037D000D9E7000030B40B784A78012A26D000EBF4
:1037E0004313D3F8002B002A52DBD0F83C480A7868
:1037F00002F00F024FF0010C0CFA02F224EA02422E
:10380000C0F83C28D0F81C28097801F00F010CFA08
:1038100001FC22EA0C42C0F81C28D3F8001B234A02
:103820000A40C3F8002B002030BC704700EB431364
:10383000D3F80029002A1EDBD0F83C580A7802F0A1
:103840000F02012404FA02F292B225EA0202C0F841
:103850003C28D0F81C28097801F00F018C40A4B254
:1038600022EA0404C0F81C48D3F80019104A0A40A0
:10387000C3F80029D7E7D3F8002942F00062C3F863
:103880000029D3F8002942F08042C3F80029D3E789
:10389000D3F8002B42F00062C3F8002BD3F8002BC2
:1038A00042F08042C3F8002B9FE700BF0078F3EF9F
:1038B000007833EC10B483B00246002301934878BB
:1038C00001280BD00B7802EB4313D3F8000B002830
:1038D0002DDB002003B05DF8044B70470B7802EB42
:1038E0004313D3F80049002C01DB0020F2E7D3F8A2
:1038F000004944F00064C3F800490B7802EB43131D
:10390000D3F8004944F08044C3F80049019B0133D7
:103910000193019C42F210739C42DBD80B7802EBBE
:103920004313D3F80039002BF0DB0020D2E7D3F8A3
:10393000000B40F00060C3F8000B0B7802EB431360
:10394000D3F8000B40F08040C3F8000B019B01331B
:103950000193019842F21073984208D80B7802EB59
:103960004313D3F8003B002BF0DB0020B2E701202B
:10397000B0E710B59DF8084084B903334FEA930EC1
:103980004FF0000C08E000EB023303F5805351F8D0
:10399000044B1C600CF1010CF445F4D3002010BD65
:1039A000F0B583B00C784B78012B2FD000EB441C82
:1039B0000CF530631D69ED0CED041D611D6925F0EA
:1039C000FF5525F4C0151D61002C40F0D2800C6914
:1039D0000CB18C680C618C680C621D69C4F3120414
:1039E0002C431C611C6944F400241C61012A00F072
:1039F000E3800B79012B00F0E580DCF8003B43F01D
:103A00000443CCF8003B002003B0F0BD0B6983BB3E
:103A100000EB4413D3F8105925F0FF5525F4C015D9
:103A2000C3F81059D3F8105945F40025C3F81059BC
:103A3000D3F81059ED0CED04C3F81059012A56D0F3
:103A400000EB4414D4F8003943F00443C4F80039BF
:103A50000B79012B74D00B69002BD4D0D0F83438FB
:103A60000A7802F00F0101228A401343C0F834386B
:103A7000C9E700EB441303F510631D69ED0CED0479
:103A80001D611D6925F0FF5525F4C0151D6184B920
:103A90000E698D68AE4200D90D611D6945F400259F
:103AA0001D611D690E69C6F3120C45EA0C051D6106
:103AB000C4E70D698E683544013DB5FBF6F51E6916
:103AC0001FFA85FC494F07EAC54535431D610D794D
:103AD000012DE6D11D6925F0C0451D611D694FEA24
:103AE0004C7C0CF0C04C45EA0C051D61D9E7CB6954
:103AF0001BB100EB4412C2F814390B79012B08D02A
:103B000000EB4410D0F8003943F00443C0F800390A
:103B100079E7D0F8083813F4807F08D100EB44121D
:103B2000D2F8003943F00053C2F80039E8E700EB5F
:103B30004412D2F8003943F08053C2F80039DFE76D
:103B4000D0F8083813F4807F0CD1D4F8003943F052
:103B50000053C4F8003900920B8A0A78C968FFF74D
:103B600008FF50E7D4F8003943F08053C4F8003917
:103B7000F1E70C6954B91C698D68C5F312052C4333
:103B80001C611C6944F400241C612FE78D682C44DF
:103B9000013CB4FBF5F4A4B204FB05F50D621D690C
:103BA000124E06EAC4442C431C611C690D6AC5F31D
:103BB00012052C431C6119E7CA68002A3FF419AFAB
:103BC0005A6116E7D0F8083813F4807F06D1DCF884
:103BD000003B43F00053CCF8003B0EE7DCF8003B21
:103BE00043F08053CCF8003B07E700BF0000F81F0C
:103BF00000B583B0844608464FEA920E02F00302F5
:103C0000002305E00CF58051096840F8041B0133DE
:103C10007345F7D39AB10CF5805CDCF80030019362
:103C20004FF0000C5FFA8CF3D900019BCB4000F8F9
:103C3000013B0CF1010C013A92B2002AF2D103B01F
:103C40005DF804FB0B784A78012A14D000EB43108E
:103C5000D0F8002B002A06DB2BB1D0F8003B23F074
:103C60008043C0F8003BD0F8003B43F40013C0F899
:103C7000003B0020704700EB4310D0F80029002AD9
:103C800006DB2BB1D0F8003923F08043C0F80039AF
:103C9000D0F8003943F40013C0F80039E9E70B7895
:103CA0004A78012A0ED000EB4310D0F8003B23F4F1
:103CB0000013C0F8003B0B79023BDBB2012B15D996
:103CC0000020704700EB4310D0F8003923F40013B4
:103CD000C0F800390B79023BDBB2012BF0D8D0F8E9
:103CE000003943F08053C0F80039E9E7D0F8003BD1
:103CF00043F08053C0F8003BE2E7D0F8003823F4EB
:103D0000FE63C0F80038D0F80038090101F4FE6104
:103D10001943C0F8001800207047D0F8003E23F087
:103D20000303C0F8003ED0F8043823F00203C0F8C3
:103D3000043800207047D0F8003E23F00303C0F899
:103D4000003ED0F8043843F00203C0F804380020E5
:103D500070474269806910407047D0F8183800F504
:103D60000060C0691840000C7047D0F8183800F5A2
:103D70000060C069184080B2704700EB4111D1F873
:103D8000082B00F5006040691040704710B4D0F86F
:103D90001048D0F8343801F00F02D340DB01DBB219
:103DA000234300EB411000F51060806818405DF877
:103DB000044B7047406900F00100704738B5054674
:103DC000C36823F0C043C360012913D019BBC36883
:103DD00043F08043C36000240A2000F00DFD0A3444
:103DE0002846FFF7E7FF08B1C72CF5D9C82C14D037
:103DF000002038BDC36843F00053C36000240A208C
:103E000000F0FAFC0A342846FFF7D4FF0128EDD071
:103E1000C72CF4D9EAE70120EBE70120E9E7D0F865
:103E2000003923F4FF6323F00703C0F80039D0F80A
:103E3000043843F48073C0F8043800207047000051
:103E400010B4046C154B9C4203D9D0F8003B002BF6
:103E500016DB0024C0F8104BD0F8104B44F40024BB
:103E6000C0F8104BD0F8104B44F01804C0F8104BB9
:103E7000D0F8104B44F0C044C0F8104B012903D0D7
:103E800000205DF8044B7047C0F8142BD0F8003BBD
:103E900043F08023C0F8003BF2E700BF0A30544FE4
:103EA000002800F0E08170B582B00446036813F08A
:103EB000010F3BD09F4B9B6803F00C03042B2CD0CD
:103EC0009C4B9B6803F00C03082B21D06368B3F56F
:103ED000803F4FD0B3F5A02F52D0964B1A6822F4F2
:103EE00080321A601A6822F480221A606368002BFC
:103EF00050D000F07BFC05468E4B1B6813F4003F4E
:103F000014D100F073FC401B6428F5D90320B1E103
:103F1000884B5B6813F4800FD8D0864B1B6813F472
:103F2000003F03D06368002B00F09F81236813F0EB
:103F3000020F54D07F4B9B6813F00C0F3ED07D4B8B
:103F40009B6803F00C03082B33D0E368002B68D088
:103F5000794B01221A6000F049FC0546754B1B683D
:103F600013F0020F54D100F041FC401B0228F5D998
:103F700003207FE16F4A136843F480331360B5E791
:103F80006C4B1A6842F480221A601A6842F480323C
:103F90001A60ABE700F02AFC0546664B1B6813F479
:103FA000003FC3D000F022FC401B6428F5D9032059
:103FB00060E1604B5B6813F4800FC6D15D4B1B68FA
:103FC00013F0020F03D0E368012B40F05081594AEF
:103FD000136823F0F803216943EAC10313602368DF
:103FE00013F0080F42D063696BB3534B0122C3F83F
:103FF000802E00F0FBFB05464E4B5B6F13F0020F6B
:1040000034D100F0F3FB401B0228F5D9032031E145
:10401000484A136823F0F803216943EAC103136097
:10402000DDE7454B00221A6000F0E0FB0546414BFE
:104030001B6813F0020FD2D000F0D8FB401B0228FF
:10404000F5D9032016E13C4B0022C3F8802E00F086
:10405000CDFB0546374B5B6F13F0020F06D000F027
:10406000C5FB401B0228F5D9032003E1236813F0A8
:10407000040F77D02F4B1B6C13F0805F33D10023DC
:1040800001932C4B1A6C42F080521A641B6C03F0A3
:1040900080530193019B0125284B1B6813F4807FFB
:1040A00023D0A368012B34D0052B38D0214B1A6FB5
:1040B00022F001021A671A6F22F004021A67A3683D
:1040C000002B3DD000F092FB06461A4B1B6F13F0FD
:1040D000020F46D100F08AFB801B41F288339842E0
:1040E000F3D90320C6E00025D6E7144A136843F449
:1040F0008073136000F07AFB0646104B1B6813F4C4
:10410000807FCED100F072FB801B0228F5D90320FE
:10411000B0E0084A136F43F001031367CFE7054B84
:104120001A6F42F004021A671A6F42F001021A670E
:10413000C5E700BF00380240000047420070004061
:1041400000F054FB0646524B1B6F13F0020F08D0D1
:1041500000F04CFB801B41F288339842F3D90320D6
:1041600088E0EDB9A369002B00F08380484A92688B
:1041700002F00C02082A51D0022B17D0454B002226
:104180001A6600F033FB0446414B1B6813F0007FB6
:1041900042D000F02BFB001B0228F5D9032069E078
:1041A0003B4A136C23F080531364DBE7394B002246
:1041B0001A6600F01BFB0546354B1B6813F0007FA9
:1041C00006D000F013FB401B0228F5D9032051E074
:1041D000E369226A1343626A43EA8213A26A5208BD
:1041E000013A43EA0243E26A43EA0263284A53601F
:1041F000284B01221A6600F0F9FA0446244B1B688A
:1042000013F0007F06D100F0F1FA001B0228F5D967
:1042100003202FE000202DE000202BE0012B2BD0ED
:104220001B4B5B6803F48001E269914226D103F0E5
:104230003F02216A8A4223D1616A47F6C0721A405E
:10424000B2EB811F1ED103F44031A26A5208013A39
:10425000B1EB024F18D103F07063E26AB3EB026F67
:1042600014D1002006E001207047012002E0012067
:1042700000E0002002B070BD0120FBE70120F9E75B
:104280000120F7E70120F5E70120F3E70120F1E73E
:10429000003802400000474208B5254B9B6803F0F8
:1042A0000C03042B3FD0082B3FD1214B5A6802F05E
:1042B0003F025B6813F4800F12D01D4B5968C1F3A5
:1042C00088111C480023A1FB0001FCF7C5FC184B1A
:1042D0005B68C3F3014301335B00B0FBF3F025E0FF
:1042E000134B5968C1F3881C4FEA4C11B1EB0C0019
:1042F0006EEB0E0E4FEA8E1343EA90638101091AAA
:1043000063EB0E03DB0043EA5173C90011EB0C0CA5
:1043100043F10003990200234FEA8C2041EA9C51AB
:10432000FCF79AFCD3E7034800E0034808BD00BF50
:104330000038024040787D010024F400002800F09D
:104340009B8070B50D4604464F4B1B6803F0070376
:104350008B4208D2CBB24C4A1370136803F00703A8
:104360008B4240F08B80236813F0020F17D013F0BC
:10437000040F04D0454A936843F4E05393602368E4
:1043800013F0080F04D0414A936843F460439360EC
:104390003E4A936823F0F003A1680B4393602368BF
:1043A00013F0010F32D06368012B21D09A1E012A2D
:1043B00025D9364A126812F0020F61D033498A6853
:1043C00022F0030213438B6000F010FA06462F4BD5
:1043D0009B6803F00C036268B3EB820F16D000F009
:1043E00005FA801B41F288339842F0D9032042E05D
:1043F000264A126812F4003FE0D101203BE0234A34
:10440000126812F0007FD9D1012034E01E4B1B68E6
:1044100003F00703AB4207D9EAB21B4B1A701B68C3
:1044200003F00703AB422DD1236813F0040F06D02D
:10443000164A936823F4E053E1680B4393602368C2
:1044400013F0080F07D0114A936823F460432169E1
:1044500043EAC1039360FFF71FFF0C4B9B68C3F354
:1044600003130B4AD35CD8400A4B18600A4B1868F8
:10447000FDF76AFE002070BD012070470120FAE7B9
:104480000120F8E70120F6E7003C02400038024036
:1044900008D500086C00002068000020014B186857
:1044A000704700BF6C00002008B5FFF7F7FF044B12
:1044B0009B68C3F38223034AD35CD84008BD00BF86
:1044C0000038024018D5000808B5FFF7E7FF044B95
:1044D0009B68C3F34233034AD35CD84008BD00BF96
:1044E0000038024018D500080F2303600B4B9A6870
:1044F00002F0030242609A6802F0F00282609A6859
:1045000002F4E052C2609B68DB0803F4E0530361ED
:10451000034B1B6803F007030B6070470038024031
:10452000003C024000230F2B00F2D28070B582B015
:1045300060E085685E000324B44025EA0405CC6889
:10454000B4402C438460456825EA02054C68C4F3F6
:1045500000129A402A4342605AE0DC08083450F8BE
:10456000246003F0070295000F22AA4026EA020EFB
:104570000A69AA4042EA0E0240F824205CE00422C4
:1045800000E0002202FA0EF22A430234514D45F8AF
:104590002420514A94686FEA0C0224EA0C054E6804
:1045A00016F4801F01D04CEA04054B4CA560E4686A
:1045B00002EA04054E6816F4001F01D04CEA040517
:1045C000454CE560646802EA04054E6816F4003F55
:1045D00001D04CEA0405404C6560246822404D68D7
:1045E00015F4803F01D04CEA04023B4C22600133B9
:1045F0000F2B6BD801229A400C6804EA020C32EAB5
:104600000404F4D14C6804F00304013C012C90D95B
:104610004A6802F00302032A09D0C4685D0003223D
:10462000AA4024EA02048A68AA402243C2604A6877
:1046300002F00302022A90D004684FEA430E0322DC
:1046400002FA0EF224EA02044A6802F0030202FAB5
:104650000EF2224302604A6812F4403FC7D00022A3
:1046600001921E4A546C44F480445464526C02F427
:1046700080420192019A9C08A51C164A52F82550C6
:1046800003F003024FEA820E0F2202FA0EF225EA2D
:104690000205134A90423FF474AF02F580629042E3
:1046A0000ED002F5806290420CD002F580629042FA
:1046B0000AD002F5806290423FF461AF072261E7C1
:1046C00001225FE702225DE703225BE702B070BDD3
:1046D000704700BF00380140003C014000380240F4
:1046E000000002400AB1816170470904816170478E
:1046F000074AD36823F4E0631B041B0C000200F498
:10470000E060034343F0BF6343F40033D36070477A
:1047100000ED00E000B5194BDB68C3F30223C3F1E1
:10472000070CBCF1040F28BF4FF0040C03F1040E7A
:10473000BEF1060F18D9033B4FF0FF3E0EFA0CFCFA
:1047400021EA0C0199400EFA03F322EA030319430C
:1047500000280BDB0901C9B200F1604000F561409F
:1047600080F800135DF804FB0023E5E700F00F007C
:104770000901C9B2024B1954F4E700BF00ED00E093
:1047800014ED00E0002807DB00F01F0240090123C0
:104790009340024A42F82030704700BF00E100E039
:1047A00008B50B4B1A6842F400721A601A6842F49A
:1047B00080621A601A6842F480721A600320FFF760
:1047C00097FF0F20FDF7C0FCFDF79CFC002008BD03
:1047D000003C0240034A1168034B1B780B441360F2
:1047E000704700BF6832002064000020014B186849
:1047F000704700BF6832002038B50446FFF7F6FF67
:104800000546B4F1FF3F02D0044B1B781C44FFF770
:10481000EDFF401BA042FAD338BD00BF640000206A
:1048200003685A6912F4806F01D1002070476FF459
:1048300080625A6100230363202280F83D2080F8C3
:104840003E30026C42F00402026480F83C300120E9
:1048500070472DE9F04106460C46174698463BE066
:10486000FFF7C4FF069BC01A404502D8B8F1000FFD
:1048700032D1012D18D033689B6924EA03039BB21F
:10488000B3FA83F35B099F4226D1002333632022CE
:1048900086F83D2086F83E30326C42F020023264C9
:1048A00086F83C30012027E033685B6924EA030383
:1048B0009BB2B3FA83F35B09E5E733685B6924EAEB
:1048C000030C1FFA8CFCBCFA8CFC4FEA5C1C67459D
:1048D00011D1B8F1FF3FC3D1C4F30745012DECD08E
:1048E00033689B6924EA030C1FFA8CFCBCFA8CFC2D
:1048F0004FEA5C1CEBE70020BDE8F0812DE9F843AE
:1049000005460E469046994653E01A6842F40072F6
:104910001A602B686FF480625A6100232B63202297
:1049200085F83D2085F83E302A6C42F004022A6466
:1049300085F83C3001204AE0FFF758FFA0EB090062
:10494000404502D8B8F1000F33D1012F17D02B68A2
:104950009B6926EA03039BB2003B18BF012343B3C4
:1049600000232B63202285F83D2085F83E302A6CF9
:1049700042F020022A6485F83C30012027E02B68B1
:104980005B6926EA03039BB2003B18BF0123E6E7FD
:104990002B689C6926EA0404A4B2003C18BF0124D9
:1049A000A4B12B685A6912F4806FAED1B8F1FF3F01
:1049B000C2D1C6F30747012FEAD12B685C6926EA0A
:1049C0000404A4B2003C18BF0124E9E70020BDE8BC
:1049D000F88370B504460D46164623685B6913F0EC
:1049E000800F21D12046FFF71BFFF8B9B5F1FF3F3B
:1049F000F3D0FFF7FBFE801BA84201D8002DECD1BD
:104A000023685B6913F0800FE7D100232363202222
:104A100084F83D2084F83E30226C42F0200222646B
:104A200084F83C30012000E0002070BD0120FCE74C
:104A30002DE9F04385B004460D4691461F46DDF84A
:104A400030800D9E0368196841F4807119600096EA
:104A5000434600224FF00111FFF7FBFE60B92368C7
:104A600005F0FE051D613346424626492046FFF704
:104A700045FF68B1012008E023681B6813F4807FBC
:104A800002D04FF400732364032005B0BDE8F08327
:104A90000023039323685A6903929B690393039B42
:104AA000324641462046FFF794FF30B9012F0FD11F
:104AB00023685FFA89F61E61E7E7236C042B01D0B7
:104AC0000120E2E72268136843F400731360F7E7FC
:104AD00023684FEA19221A61324641462046FFF701
:104AE00078FF20B923685FFA89F61E61CDE7236C51
:104AF000042B01D00120C8E72268136843F4007337
:104B00001360F7E7020001002DE9F04784B0044686
:104B10000D46164699460C9FDDF8348002681368EE
:104B200043F4806313600368196841F4807119606D
:104B3000CDF800803B4600224FF00111FFF789FEBF
:104B400070B95FFA85FA236805F0FE051D614346DA
:104B50003A4641492046FFF7D1FE68B1012008E0FE
:104B600023681B6813F4807F02D04FF40073236422
:104B7000032004B0BDE8F0870023039323685A693B
:104B800003929B690393039B424639462046FFF7F5
:104B900020FF80B9B9F1010F18D12368F6B21E6168
:104BA000424639462046FFF714FF68B3236C042BB6
:104BB00024D00120DDE7236C042B01D00120D8E7AD
:104BC0002268136843F400731360F7E72368320A1E
:104BD0001A61424639462046FFF7FBFE18B92368A2
:104BE000F6B21E61DCE7236C042B01D00120C0E784
:104BF0002268136843F400731360F7E722681368B0
:104C000043F400731360D4E72268136843F480739D
:104C10001360CDF800803B4600224FF00111204682
:104C2000FFF717FE68B922684AF001031361434693
:104C30003A4609492046FFF761FE002899D0012035
:104C400097E723681B6813F4807F02D04FF400734A
:104C5000236403208DE700BF0200010070B5044605
:104C60000D46164623685B6913F0040F21D12046D8
:104C7000FFF7D6FDF8B9B5F1FF3FF3D0FFF7B6FD6A
:104C8000801BA84201D8002DECD123685B6913F08A
:104C9000040FE7D100232363202284F83D2084F809
:104CA0003E30226C42F02002226484F83C30012025
:104CB00000E0002070BD0120FCE770B504460D4601
:104CC000164614E06FF010025A610023236320227D
:104CD00084F83D2084F83E30226C226484F83C3015
:104CE000012025E023685B6913F0400F10D0236892
:104CF000586910F0400F1AD1586910F0100FE1D127
:104D0000FFF774FD801BA842ECD8002DEFD1E9E736
:104D100000232363202284F83D2084F83E30226C57
:104D200042F02002226484F83C30012000E00020A0
:104D300070BD0000002800F0CC8070B5044690F8EB
:104D40003D30002B77D0242384F83D30226813684F
:104D500023F0010313602268136843F400431360D7
:104D60002268136823F400431360FFF79DFB626819
:104D70005A4B9A4264D85A4B98428CBF0023012365
:104D8000002B40F0A8805749A1FB00318B0C25680F
:104D90006A6822F03F0242EA91426A6021680A6A28
:104DA00022F03F0266684D4DAE424FD801331343A7
:104DB0000B622168CA6922F44F4222F0FF02666842
:104DC000464B9E424CD8431E7600B3FBF6F30133AC
:104DD00040F6FC70034278D0C3F30B031343CB615E
:104DE00021680B6823F0C003E269206A0243134381
:104DF0000B6021688B6823F4034323F0FF032269CF
:104E0000E068024313438B602168CB6823F0FF0303
:104E10006269A06902431343CB602268136843F0C0
:104E20000103136000202064202384F83D302063B8
:104E300084F83E0070BD80F83C30FCF7FFFD82E74F
:104E4000294B98428CBF0023012399E74FF49675B4
:104E500005FB03F3254DA5FB03539B090133A6E78F
:104E6000A368BBB9451E06EB460CB5FBFCF5013546
:104E7000C5F30B05B5FA85F56D0945BBC3B9013816
:104E800006EB4603B0FBF3F30133C3F30B0343F428
:104E90000043A3E7451E06EB860C0CEB8C0CB5FB20
:104EA000FCF50135C5F30B05B5FA85F56D09E4E7A9
:104EB000013806EB860303EB8303B0FBF3F3013306
:104EC000C3F30B0343F4404388E7042386E701233D
:104ED00084E7012070470120ACE700BFA0860100F5
:104EE0007F841E0083DE1B43FF083D00D34D62100C
:104EF0002DE9F04383B004460F46904699460C9E38
:104F0000FFF774FC054694F83D00C0B2202803D09A
:104F1000022003B0BDE8F0830095192301224B491C
:104F20002046FFF796FC002840F0898094F83C303A
:104F3000012B00F08680012384F83C3023681A6836
:104F400012F0010F03D11A6842F001021A602268C0
:104F5000136823F400631360212384F83D30402359
:104F600084F83E30002323640A9B6362BDF82C3032
:104F70006385638D2385364BE362019500964B462E
:104F8000424639462046FFF753FD00285BD1238D6A
:104F9000002B35D02A4631462046FFF71AFD20BBAC
:104FA000626A236812781A61626A531C6362218DF7
:104FB000013989B22185638D9BB2013B9BB2638528
:104FC0002368586910F0040FE1D00029DFD052782F
:104FD0001A61636A01336362238D013B2385638D0C
:104FE0009BB2013B9BB26385D1E7236C042B01D0BC
:104FF00001208EE72268136843F400731360F7E71B
:105000002A4631462046FFF729FE50B1236C042B77
:1050100001D001207DE72268136843F40073136018
:10502000F7E72268136843F400731360202384F8C1
:105030003D30002384F83E3084F83C3069E702209C
:1050400067E7022065E7012063E700BF0200100068
:105050000000FFFF2DE9F04387B004460F4690465D
:105060009946109EFFF7C2FB054694F83D00C0B27A
:10507000202804D00227384607B0BDE8F083009509
:105080001923012288492046FFF7E3FB002840F05E
:105090004D8194F83C30012B00F04A81012384F8C3
:1050A0003C3023681A6812F0010F03D11A6842F0ED
:1050B00001021A602268136823F40063136022233C
:1050C00084F83D30402384F83E30002323640E9B57
:1050D0006362BDF83C306385638D2385734BE36267
:1050E000019500964B46424639462046FFF70CFD97
:1050F0000746002840F01E81238D5BB90293236888
:105100005A6902929A690292029A1A6842F40072EB
:105110001A6075E0012B0AD0022B1AD000230593E8
:1051200023685A6905929B690593059B68E022688C
:10513000136823F4806313600023039323685A6980
:1051400003929A690392039A1A6842F400721A60F1
:1051500056E02268136823F48063136022681368A2
:1051600043F4006313600023049323685A69049294
:105170009B690493049B43E02A4631462046FFF78F
:105180009CFD002840F0D88023681A69636A1A7071
:10519000636A01336362238D013B2385638D9BB278
:1051A000013B9BB263852BE00095334600224049CA
:1051B0002046FFF74EFB002840F0C08022681368AD
:1051C00043F40073136023681A69636A1A70626A91
:1051D000531C6362238D013B2385638D9BB2013B8E
:1051E0009BB2638523681B695370636A01336362F2
:1051F000238D013B2385638D9BB2013B9BB263856D
:10520000238D002B00F08980032B53D8012BB3D0C2
:10521000022BC9D000953346002225492046FFF7CE
:1052200018FB002840F08C802268136823F4806308
:10523000136023681A69636A1A70636A01336362D0
:10524000238D013B2385638D9BB2013B9BB263851C
:1052500000953346002216492046FFF7FAFA002847
:1052600070D12268136843F40073136023681A69CD
:10527000636A1A70626A531C6362238D013B238543
:10528000638D9BB2013B9BB2638523681B6953709E
:10529000636A01336362238D013B2385638D9BB277
:1052A000013B9BB26385ABE7020010000000FFFFEB
:1052B000040001002A4631462046FFF7FEFC002884
:1052C00042D123681A69636A1A70636A01336362A0
:1052D000228D013A92B22285638D9BB2013B9BB233
:1052E00063852368596911F0040F89D0032A0FD010
:1052F00023681A69636A1A70636A01336362238DD3
:10530000013B2385638D9BB2013B9BB2638577E7AD
:105310001A6822F480621A60EAE7202384F83D309C
:10532000002384F83E3084F83C30A4E60227A2E64D
:105330000227A0E601279EE601279CE601279AE6C0
:10534000012798E6012796E6012794E600285AD01F
:1053500010B50446436A33B94368B3F5827F05D07C
:105360000023C36102E00023036143610023A362C1
:1053700094F85130002B40D0022384F85130226839
:10538000136823F040031360636803F48273A26818
:1053900002F404421343E26802F4006213432269F8
:1053A00002F002021343626902F001021343A26990
:1053B00002F400721343E26902F038021343226AD6
:1053C00002F080021343A26A02F4005221681343E0
:1053D0000B60638B03F00403626A02F01002216821
:1053E00013434B602268D36923F40063D361002028
:1053F0006065012384F8513010BD84F85030204698
:10540000FCF7AEFBB8E701207047704790F83D30DD
:10541000DBB2012B2FD1022380F83D300268D36824
:1054200043F00103D3600368154A934218D0B3F1E7
:10543000804F15D0A2F57C42934211D002F58062D4
:1054400093420DD002F58062934209D002F59A3260
:10545000934205D01A6842F001021A60002070479A
:105460009A6802F00702062A07D01A6842F0010281
:105470001A6000207047012070470020704700BF6D
:1054800000000140704770477047704770B5044690
:105490000368DE681D6915F0020F10D016F0020FC8
:1054A0000DD06FF002021A610123037703689B6934
:1054B00013F0030F5ED0FFF7E6FF0023237715F00C
:1054C000040F12D016F0040F0FD023686FF00402FF
:1054D0001A610223237723689B6913F4407F4FD01E
:1054E0002046FFF7D0FF0023237715F0080F12D0D6
:1054F00016F0080F0FD023686FF008021A6104231A
:1055000023772368DB6913F0030F40D02046FFF7B1
:10551000BAFF0023237715F0100F12D016F0100FEA
:105520000FD023686FF010021A61082323772368D5
:10553000DB6913F4407F31D02046FFF7A4FF00233E
:10554000237715F0010F02D016F0010F2DD115F0C1
:10555000800F02D016F0800F2FD115F0400F02D02F
:1055600016F0400F31D115F0200F02D016F0200FA9
:1055700033D170BDFFF786FF2046FFF785FF9CE71C
:105580002046FFF77FFF2046FFF77EFFABE7204670
:10559000FFF778FF2046FFF777FFBAE72046FFF7CF
:1055A00071FF2046FFF770FFC9E723686FF0010223
:1055B0001A612046FBF7D2FCC9E723686FF080022E
:1055C0001A61204600F091F8C7E723686FF04002A7
:1055D0001A612046FFF759FFC5E723686FF02002E4
:1055E0001A61204600F080F8C3E700000368274AEC
:1055F00090420ED0B0F1804F0BD0A2F57C42904289
:1056000007D002F58062904203D002F5806290429A
:1056100003D123F070034A6813431C4A90421AD006
:10562000B0F1804F17D0A2F57C42904213D002F522
:10563000806290420FD002F5806290420BD002F55A
:105640009A32904207D002F58062904203D002F570
:105650008062904203D123F44073CA68134323F05D
:1056600080034A6913438A68C2620A688262074AF1
:10567000904207D0026842F00402026001224261B7
:10568000036070470A690263F4E700BF000001404D
:1056900040B310B5044690F83D30F3B1022384F8CE
:1056A0003D30214651F8040BFFF7A0FF012384F899
:1056B000463084F83E3084F83F3084F8403084F837
:1056C000413084F8423084F8433084F8443084F820
:1056D000453084F83D30002010BD80F83C30FFF7A5
:1056E00094FEDBE7012070477047704730B4036ACF
:1056F00023F001030362036A4468826922F07302A3
:105700000D682A4323F002030D692B4323F00103A4
:105710004D682B430F4DA84207D044608261CA6890
:1057200042630362002030BC704723F008034D69D8
:1057300043EA850323F004038D6843EA850324F4D8
:1057400080748D692C4324F40074CD6944EA4504C7
:10575000E3E700BF0000014030B4036A23F0100308
:105760000362036A4468826922F4E6420D6842EAF1
:10577000052223F020030D6943EA051323F01003EB
:105780004D6843EA0513104DA84207D0446082617A
:10579000CA6882630362002030BC704723F0800334
:1057A0004D6943EA851323F040038D6843EA85136E
:1057B00024F480648D6944EA850424F40064CD698E
:1057C00044EAC504E2E700BF0000014030B4036AC8
:1057D00023F480730362036A4468C26922F073028F
:1057E0000D682A4323F400730D6943EA052323F46B
:1057F00080734D6843EA05230F4DA84207D04460EB
:10580000C261CA68C2630362002030BC704723F4DF
:1058100000634D6943EA852323F480638D6843EA7E
:10582000852324F480548D6944EA051424F400543B
:10583000CD6944EA4514E2E70000014030B4036A50
:1058400023F480530362036A4468C26922F4E64287
:105850000D6842EA052223F400530D6943EA05333B
:1058600023F480534D6843EA0533084DA84207D01E
:105870004460C261CA6802640362002030BC7047A1
:1058800024F480448D6944EA8514F1E70000014066
:105890000368244A90420ED0B0F1804F0BD0A2F59D
:1058A0007C42904207D002F58062904203D002F51C
:1058B0008062904203D123F070034A681343194A6F
:1058C00090421AD0B0F1804F17D0A2F57C4290429E
:1058D00013D002F5806290420FD002F580629042B0
:1058E0000BD002F59A32904207D002F580629042C6
:1058F00003D002F58062904203D123F44073CA685A
:10590000134303608B68C3620B888362054B984224
:1059100005D0436943F001034361002070470B69E0
:105920000363F6E70000014008B50B461146B3F5E6
:10593000807F14D008D8012B0ED0102B02D1FFF796
:105940000BFF08E0012006E0B3F5805F02D1FFF70E
:1059500075FF00E0012008BDFFF7C8FEFBE7FFF779
:1059600035FFF8E7F0B40A6892FAA2F212B1B2FA7F
:1059700082F264E0202262E08E68856893FAA3F4E4
:10598000DCB1B4FA84F464004FF0030C0CFA04F4B4
:1059900025EA040593FAA3F48CB1B4FA84F4640004
:1059A00006FA04F42C438460CD68446824EA0304B6
:1059B00003FB05F52C43446050E02024E3E720245A
:1059C000EDE7202452E020245DE0202473E0202431
:1059D0007DE04F69466A1C0A94FAA4F5002D7CD03C
:1059E000B5FA85F5AD004FF00F0C0CFA05F526EA77
:1059F000050594FAA4F4002C71D0B4FA84F4A40040
:105A000007FA04F42C4344624E68056893FAA3F441
:105A1000002C66D0B4FA84F464004FF0030C0CFA46
:105A200004F425EA040493FAA3F3002B5BD0B3FA41
:105A300083F35B0006FA03F32343036001320B6830
:105A400033FA02F451D04FF0010C0CFA02FC1CEABC
:105A50000303F3D04C68013C012C8DD90E69C56855
:105A600093FAA3F4002CACD0B4FA84F464004FF0A1
:105A7000030C0CFA04F425EA040593FAA3F4002CB1
:105A8000A1D0B4FA84F4640006FA04F42C43C46090
:105A90004C68022CB8D193FAA3F4002C99D0B4FA34
:105AA00084F4072C95D84E69056A93FAA3F4002C68
:105AB0008BD0B4FA84F4A4000F2707FA04F425EA83
:105AC000040593FAA3F4002C81D0B4FA84F4A40062
:105AD00006FA04F42C43046296E7202582E720248A
